:020000040800F2
:10000000B0340020CD020008E1450008514100084D
:1000100079450008DF1F0008D54C000800000000EB
:100020000000000000000000000000003502000891
:10003000412000080000000079020008194600086D
:10004000E7020008E7020008E7020008E7020008EC
:10005000E7020008E7020008E7020008E7020008DC
:10006000E7020008E7020008E7020008E51F0008B1
:10007000F51F000805200008E7020008E702000855
:10008000E7020008E7020008E7020008E7020008AC
:10009000E7020008E7020008E7020008E70200089C
:1000A000E7020008D5460008E7020008E70200085A
:1000B000E7020008E7020008E7020008E70200087C
:1000C000E7020008E7020008E7020008E70200086C
:1000D000E7020008E7020008E70200085D4C00089C
:1000E000E7020008E7020008E702000800F002F853
:1000F00000F090F80AA090E8000C82448344AAF132
:100100000107DA4501D100F085F8AFF2090EBAE82F
:100110000F0013F0010F18BFFB1A43F0010318473B
:1001200098AA0000B8AA0000103A24BF78C878C185
:10013000FAD8520724BF30C830C144BF04680C60ED
:10014000704700000023002400250026103A28BF35
:1001500078C1FBD8520728BF30C148BF0B60704739
:100160006E2900F02D83702900F0778466290AF04B
:10017000638165290AF0608167290AF05D81612940
:100180000AF05C8103681B0A28BF41F080016929DD
:1001900000F0DA82642900F0D782752900F0D48259
:1001A0006F2900F00484782900F04384E92900F0E5
:1001B0009F83E42900F09C83F52900F09983EF29BF
:1001C00000F00184F82900F042840368DB0928BFAD
:1001D00041F08001632901F04981732901F04E81CA
:1001E000E32901F05981F32901F05E810020704775
:1001F0001FB501F0ABF904000020002109F030FD2B
:10020000401C60600020002109F014FDE0601FBD6B
:1002100010B510BD01F06CF91146FFF7E9FF04F0CD
:10022000D7FD01F049FA03B4FFF7F2FF03BC01F078
:100230004DFA0000224B19680868B0E8F00F80F30F
:100240000988BFF36F8F4FF0000080F311884EF0E4
:100250000D0E70470000000006480068006880F33B
:10026000088862B661B6BFF34F8FBFF36F8F00DFB0
:1002700000BF00BF08ED00E0EFF30980BFF36F8F10
:100280000F4B1A6820E9F00F106008B54FF05000CE
:1002900080F31188BFF34F8FBFF36F8F08F030FBEF
:1002A0004FF0000080F31188BDE808401968086825
:1002B000B0E8F00F80F30988BFF36F8F704700BF7D
:1002C000A0000020EFF30580704700000948804738
:1002D00009480047FEE7FEE7FEE7FEE7FEE7FEE728
:1002E000FEE7FEE7FEE7FEE704480549054A064B40
:1002F00070470000D1460008ED000008B02A002039
:10030000B0340020B02C0020B02C002070B5044682
:10031000051F00F0B3F90068002C14BF446870BDDD
:10032000002C18BFAC423CBF20466468F8D301687B
:100330000A18AA4218BF456003D12A68054611442D
:10034000016028684119A1421CBF6C6070BD6168E2
:10035000696021680844286070BD00007CB51D46B6
:1003600016460C00009001D02044401E074B7B44F1
:100370002A4669460190304600F03BFA05461CB11A
:100380000020694600F048FA28467CBDB104000010
:1003900010B5431C02E010F8011B71B18107FAD1BE
:1003A0004FF0013202C88C1A8C4314EAC211F9D002
:1003B000C01A0A0603D0C01E10BDC01A10BD0A0420
:1003C00001D0801E10BD0902FCD0401E10BD40EAC5
:1003D000010370B59B072ED14FF00136042A2AD3B2
:1003E00008C810C99D1B9D43121F15EAC61517D0DA
:1003F000D8B2E1B2401A50EA056110D198B2A1B268
:10040000401A50EA05410AD123F07F4024F07F4191
:10041000401A50EA052102D1180EA0EB146070BDFD
:10042000A342DBD018BA21BA884201D9012070BD9D
:100430004FF0FF3070BD0AB9002070BD10F8013BCD
:1004400011F8014B63B1A3420AD1521E08D010F833
:10045000013B11F8014B1BB1A34201D1521EEDD15A
:10046000181B70BD032A40F2308010F0030C00F01E
:10047000158011F8013BBCF1020F624498BF11F8DE
:1004800001CB00F8013B38BF11F8013BA2F1040297
:1004900098BF00F801CB38BF00F8013B11F003030F
:1004A00000F02580083AC0F0088051F8043B083A73
:1004B00051F804CBA0E80810F5E7121D5CBF51F815
:1004C000043B40F8043BAFF30080D20724BF11F88F
:1004D000013B11F801CB48BF11F8012B24BF00F8F4
:1004E000013B00F801CB48BF00F8012B704710B565
:1004F000203AC0F00B80B1E81850203AA0E818501C
:10050000B1E81850A0E81850BFF4F5AF5FEA027CDC
:1005100024BFB1E81850A0E8185044BF18C918C04B
:10052000BDE810405FEA827C24BF51F8043B40F8EC
:10053000043B08BF7047D20728BF31F8023B48BFD1
:1005400011F8012B28BF20F8023B48BF00F8012B0F
:10055000704702F0FF0343EA032242EA024200F03E
:1005600002B84FF000020429C0F0128010F0030C12
:1005700000F01B80CCF1040CBCF1020F18BF00F896
:10058000012BA8BF20F8022BA1EB0C0100F00DB845
:100590005FEAC17C24BF00F8012B00F8012B48BFA3
:1005A00000F8012B70474FF0000200B51346944647
:1005B0009646203922BFA0E80C50A0E80C50B1F1BB
:1005C0002001BFF4F7AF090728BFA0E80C5048BFCF
:1005D0000CC05DF804EB890028BF40F8042B08BF6D
:1005E000704748BF20F8022B11F0804F18BF00F869
:1005F000012B70474FF0013C50F8042B51F8043B9D
:100600009A4221D1A2EB0C03934313EACC1317D1E6
:1006100050F8042B51F8043B9A4215D1A2EB0C037D
:10062000934313EACC130BD150F8042B51F8043B3D
:100630009A4209D1A2EB0C03934313EACC13DBD00B
:100640004FF00000704700BFD01A01BAB1FA81F133
:1006500001F0180122FA01F0CB40C1F12001DBB218
:10066000C0B2C01A2CFA01F3D11A914311EAC31196
:10067000E6D17047704770477047000000487047E8
:10068000542A002070B5044685690068C10601D56A
:10069000302600E02026C00707D070BDD4E9012134
:1006A00030469047206A401C20626D1EF6D570BD12
:1006B00070B5044685690078C00707D170BDD4E9DC
:1006C000012120209047206A401C20626D1EF6D533
:1006D00070BD09684A0501D540B27047C905FCD50F
:1006E00000B2704709684A0501D5C0B27047C90514
:1006F000FCD580B2704770B50C460546012A05D07E
:100700002878800600D5EA69002302E0012305E08D
:100710005B1C934202D2E05C0028F9D1A869E6187C
:10072000C01AA861286A184428622846FFF7AAFF61
:1007300004E0D5E9012114F8010B9047B442F8D345
:100740002846FFF7B5FF70BD2DE9F04106460024AD
:1007500010687529314616A510D0FFF7BAFF00289A
:1007600002DA404213A507E031688A0701D512A5D5
:1007700002E0490704D511A5012401E0FFF7B2FF0B
:1007800000210A2206F1240709E0B0FBF2FCB0FBCD
:10079000F2F302FB1C00303078541846491C002844
:1007A000F3D123462A463046BDE8F04100F06DBA49
:1007B000000000002D0000002B00000020000000C1
:1007C00011680268006A530501D508700AE0D30574
:1007D00001D5088006E0130603D5C217C1E900025F
:1007E00000E008600120704701694A1C0261087836
:1007F000704700B58FB0CDE9013100210591054961
:100800007944CDE903101146684600F031F90FB084
:1008100000BD0000E5FFFFFF0A6802F8010B0A6057
:100820007047D1E900239A4202D2531C0B6010702A
:10083000704700002DE9FF5F15468A460446DFF841
:10084000AC80F8440027D8E900103E46CDE90010FE
:1008500010E03AF816106A4602A800F029FE411C82
:1008600007D02178890603D5E269391891420DD85D
:100870000744761C2078800602D5E069B84205DD81
:10088000AE42E6DB3AF816000028E2D1A069C01BB0
:10089000A0612046FFF7F6FED8E90010CDE9001070
:1008A000002017E03AF818106A4602A800F000FE8F
:1008B000B0F1FF3F81460BD000250DF1080B05E09C
:1008C000D4E901211BF8050090476D1C4D45F7D375
:1008D00008F10100B0428046E4DB206A384420621F
:1008E0002046FFF7E5FEBDE8FF9F00009A9F00004D
:1008F0002DE9F0418046D21D22F007020025D2E901
:100900000002F52915A614D0011E72F1000106DAC5
:100910000023D0EB030063EB020211A608E0D8F835
:1009200000108B0701D50FA602E0490701D50EA6DE
:1009300001251146002408F1240704E000F060F9C5
:1009400030323A55641C50EA0102F7D12B46324648
:1009500021464046BDE8F04100F097B90000000094
:100960002D0000002B0000002000000030B400210A
:1009700000F1240408E002F00705D208303542EA0D
:100980004372DB086554491C52EA0305F3D104683D
:10099000002310A2250707D5A40600D421B1C469FD
:1009A00001230DA2641EC46130BC00F06EB910B505
:1009B000044621461068FFF795FE02462046BDE832
:1009C00010400023D2E7D21D22F00701D1E9002315
:1009D000CCE700000000000030000000F0B40D463D
:1009E0000188090502D5214C7C4402E01F4C7C445F
:1009F0000E34002100F1240608E002F00F0712096E
:100A0000E75D42EA03721B097754491C52EA030767
:100A1000F3D102780023120704D5702D06D009B156
:100A2000022311342246F0BC00F02FB90123103408
:100A3000F8E770B504460D4621461068FFF752FEF0
:100A4000024629462046BDE870400023C6E7D21D75
:100A500022F00703D3E90023C0E70368126843F0DC
:100A6000200303600823C3610023B7E7FC9D000057
:100A70002DE9F05F894604464FF0000ADFF874B1B3
:100A8000FB44C0F820A02046E1688847002874D0C5
:100A9000252806D0D4E901219047206A401C206215
:100AA000F1E700265F462046E16888472028054692
:100AB00007DB312D05D2781910F8200C08B1064358
:100AC000F1E7B00701D526F00406C4F81CA0002702
:100AD000C4F818A02A2D09D0284604F069F938B3C3
:100AE00004EB8708303DC8F8185019E059F8041B8A
:100AF000204604EB87029161E1688847012F054693
:100B000018D1E069002820DA26F020061DE0D8F888
:100B1000180000EB800005EB40003038C8F81800E2
:100B20002046E1688847054604F042F90028EED1E6
:100B3000012F0AD02E2D08D12046E16888477F1C5E
:100B40000546022F46F02006C4DBA069002803DA20
:100B5000404246F00106A061F00701D026F01006E1
:100B60006C2D0BD0682D09D04C2D39D06A2D35D085
:100B7000742D35D07A2D33D016E038E0E1682F4659
:100B800020468847B842054609D16C2F26D04FF43D
:100B90008060E168064320468847054604E06C2FE4
:100BA0001AD04FF4807006430DB3A5F14100192807
:100BB00002D8203546F400664A462946204626607B
:100BC0004E46FFF7CDFA80B101280BD0F61D26F076
:100BD000070000F1080956E74020E4E78020D8E745
:100BE0000020D6E706F104094DE7284652E7206ABF
:100BF000BDE8F09F8C9D0000004870474C2A002003
:100C000030B5B0F10A024FEA900E71F100034EEADE
:100C1000817EB0EB0E0061EB91014FEA101E4EEAAF
:100C2000017E10EB0E0041EB11114FEA102E4EEA3F
:100C3000016E10EB0E0041EB11214FEA104E4EEA0F
:100C4000014E10EB0E0041EB1141401841F1000143
:100C50004FEAD00040EA41704FEAD10110EB800525
:100C60004FEA810444EA907444EB01046D1944EBAB
:100C70000404521BA3414FF0000348BF0A3200D5C1
:100C800030BD401C41F1000130BD2DE9F0470D465B
:100C900099469246044600F124080168880604D566
:100CA000E06921F01001216000E00120A84201DD8F
:100CB000471B00E00027A1697A1902EB0900081A16
:100CC000A0612078C00602D42046FFF7DBFC002696
:100CD00008E0D4E901211AF806009047206A401C78
:100CE000761C20624E45F4DB2078C0060AD52046EB
:100CF000FFF7C8FC06E0D4E9012130209047206AC4
:100D0000401C2062381EA7F10107F4DC07E0D4E99B
:100D1000012118F805009047206A401C2062281E17
:100D2000A5F10105F3DC2046FFF7C2FC20780006A0
:100D300002D50220BDE8F0870120FBE770472DE9CE
:100D4000FF4F0C461E464FF0FF378BB0D2E9000133
:100D5000DDF860800A908A46C1F30A5505B93D4620
:100D6000002108464FF00000BAF1000F00F44000E7
:100D700005DA00EB80004FF4400101EA50004FEA31
:100D80009059B9F1010F00DDB9460A9850EA4A00BE
:100D90000ED044F61050A5F2FF3545432F14B8F19C
:100DA000000F1ED07542291E1EDDC9F100021CE095
:100DB000B8F1010F4FF0000001D0302103E0F24301
:100DC00005E02154401CB042FBDB304600220021EC
:100DD00021540B99C1F80880C1E900200FB0BDE88B
:100DE000F08FBD1B6D1CDEE74A4600DA694206A89B
:100DF00000F0F0FB06AB93E8070003AB83E80700C5
:100E000050460A9900F069FC8DE80700A0F50050F3
:100E10001F3800900398002D0ADD42F21F014A4658
:100E20000844002303A90390684600F0D2FE09E0BD
:100E3000A0F500504A461F38002303A903906846D6
:100E400000F0DCFE8DE807000004000C03D04FF03A
:100E5000FF30410800E01046B8F1000F03D0002237
:100E6000009215461EE0751E05D4FFF7C9FE30320C
:100E700062556D1EF9D5B3460122084302D0002207
:100E80007F1C04E02078302801D100227F1E002A38
:100E9000099784D01DE0112D07DAFFF7B1FE30323B
:100EA00062556D1C50EA0102F5D1084302D000984A
:100EB000C8B10EE00021681E05E0235C625C63544B
:100EC0002254401E491C8142F7DBAB46A81B401E42
:100ED0000990002004F80B000B98099AC0F80880CC
:100EE000C0E9002B7AE711264FF0000857E72DE9FB
:100EF000F04F88460446D21D22F0070191B0D1E997
:100F00000001CDE90A0103F023FF02460B98C00F50
:100F100001D02D2007E02068810701D52B2002E0B9
:100F2000202101EAC000032A099001D0072A05DB2D
:100F300003464146204600F00DFB0BE12078800679
:100F400001D5E06900E00620B8F1650F814606D0C2
:100F5000B8F1660F18D0B8F1670F70D131E00020FA
:100F6000B9F1110F009001DB112301E009F1010338
:100F70000AAA01A90CA8FFF7E2FEDDE90C70002621
:100F800009F10105834647E001204B4600904FF0F0
:100F900000470AAA01A90CA8FFF7D1FEDDE90DB0B0
:100FA0000C995D46002610B909F101000D18B9EB46
:100FB000050003D4C0F1FF3609F10105A5EB0900D6
:100FC0002BE0B9F1010F01DA4FF001090020B9F16E
:100FD000110F0090484601DD112300E003460AAAE4
:100FE00001A90CA8FFF7ABFEDDE90C704D46002609
:100FF0008346207800070AD4AB4500DA5D4601A895
:10100000012D04DD411911F8011C302907D04F458D
:1010100002DA17F1040F04DA012082460FE06D1E98
:10102000EEE7002F02DCED1B3E4403E0781CA842F3
:1010300000DD7D1CB81B00F1010A4FF0004720784D
:10104000000703D4AA4501DB4FF0FF3A0021B7F1B6
:10105000004F0DF143088DF8431024D002202B23BC
:10106000002F01DA7F422D230A21021EA0F1010088
:1010700000DC5FB197FBF1FC97FBF1F201FB1C7CFC
:1010800017460CF1300C08F801CDEEE7A8F101008D
:1010900003702188090501D5452100E06521A0F1F3
:1010A000010800F8011C09980FA9A1EB0807FF1D12
:1010B00000B10120411901EBEA70A1693844081A16
:1010C000401EA0612078C00602D42046FFF7DAFA5D
:1010D000099828B1D4E901219047206A401C206278
:1010E0002078C00622D52046FFF7CCFA1EE0002E5D
:1010F00004DBB34502DD01A8805D00E03020D4E9C7
:1011000001219047206A401C2062761CAAF1010050
:101110005FEA000A0AD100F019FAC0680168405C71
:10112000D4E901219047206A401C2062281EA5F1C5
:101130000105DCDC07E0D4E9012118F8010B904738
:10114000206A401C2062381EA7F10107F3DC20460C
:10115000FFF7AEFA032011B041E600002DE9F04F91
:1011600004460D46D21D22F0070089B0D0E9009751
:101170004846394603F0ECFD0246F80F01D02D2316
:1011800007E02068810701D52B2302E0202101EA36
:10119000C0038DF820300BB1012000E00020032AAD
:1011A000824601D0072A04DB2946204600F0D2F906
:1011B0003FE12078800601D40D2500E0E569C7F302
:1011C0000A560D2D49DA00214FEA175B08464FF009
:1011D0000000002F00F4400007DA00EB80004FF41D
:1011E000400100EBD07001EA60008115012901DDAA
:1011F0004FF0FF3100224FEA850CBCF1180F06D3E7
:101200001346ACF118004FF08052C24003E04FF497
:10121000801323FA0CF30CF10C0CBCF1200F04D357
:10122000ACF1200C09FA0CF001E007FA0CF00029EF
:101230004FF0004801DD18B90FE00ED140450CD346
:1012400019EB02095F4121B9404502D19F4329EAC8
:101250000209BBEB175F00D0761C2088000502D581
:101260007B48784402E07A487844193808AA302349
:1012700002F80A30037C0AF10101002E0AF1020A89
:1012800053546A4602DC4FF0300101E04FF0310167
:101290004FF001088DF8001002D0A6F2FF3603E0EF
:1012A00059EA470100D06B4E002D02DC2178090776
:1012B00004D54FF002082E218DF80110C4460021FC
:1012C0000BE0C7F303433F01C35C491C6D1E02F8EA
:1012D0000830052908F1010801DA002DF1DC0021B0
:1012E0000CE000EB1973491C1B786D1E082902F8ED
:1012F00008304FEA091908F1010801DA002DF0DC85
:1013000021688B0602D516E0A8F10108E04505DD4D
:1013100002EB080313F8013C302BF5D0B8F1000FB5
:1013200009DD02EB080313F8013C2E2B03D109075A
:1013300001D4A8F10108002D05DD3E2102F80810B6
:101340006D1E08F10108407C002E02F8080008F12B
:10135000010804DA2D20764202F8080002E02B2072
:1013600002F808000A214FF47A70864208F1010859
:101370000BDB96FBF0F3303302F8083096FBF0F30A
:1013800008F1010800FB136601E0642E0CDB642009
:1013900096FBF0F3303302F8083096FBF0F308F1D7
:1013A000010800FB136601E00A2E06DB96FBF1F054
:1013B000303002F8080008F1010896FBF1F001FB5B
:1013C0001060303002F80800A16908F1010808EB4C
:1013D000050202EB0A00081AA0612078C00602D4B8
:1013E0002046FFF74FF9216A08AE01EB0A002062A0
:1013F00004E0D4E9012116F8010B9047BAF1010A83
:10140000F7D22078C00602D52046FFF73BF96E469A
:1014100009E016F8010B3E280FD0D4E901219047CE
:10142000206A401C2062B8F10108F2D22046FFF782
:101430003FF909B00320BDE8F08F206A28442062FC
:1014400003E0D4E90121302090476D1EEBD3F8E78B
:10145000CE95000002FCFFFF10B5436913B1AFF356
:10146000008001E0FFF747F9012010BD127800F17C
:1014700024010A7000224A700122EDE711684FF042
:10148000FF32E9E710B5436913B1AFF3008001E023
:10149000FFF7D0F9012010BD128800F124018284E9
:1014A0000022C2840122EDE711684FF0FF32E9E724
:1014B00070B516460C46054600F040F8036893F8F0
:1014C0000101012806D0FF2C0FD8185D68B101205A
:1014D0002C7070BDD3F807013246214603F2071382
:1014E00003442846BDE8704018474FF0FF3070BDF8
:1014F0007546FFF781FBAE4605006946534620F06E
:101500000700854618B020B5FEF7EEFEBDE8204086
:101510004FF000064FF000074FF000084FF0000BAF
:1015200021F00701AC46ACE8C009ACE8C009ACE862
:10153000C009ACE8C0098D467047000010B500F046
:1015400005F8001D10BD00BF198700000048704756
:101550006C2A00202DE9F0411F460446032601684D
:10156000072A01F4006004DB08B116A505E016A502
:1015700003E008B115A500E015A521F010002060DA
:10158000A069C01EA0610FB1401EA0612046FFF7F8
:1015900079F84FB1D4E9012138469047206A401CC0
:1015A0002062C01C206206E0206AFAE7D4E901212B
:1015B00015F8010B9047761EF8D22046FFF778F811
:1015C000BDE8F0814E414E006E616E00494E46000E
:1015D000696E66002DE9F047814616468AB03548A7
:1015E00078440DC88DE80D0032487844801C03AC67
:1015F0000DC884E80D0041F69B300844372190FB6C
:10160000F1F290FBF1F5A5F1800501FB12041B3C02
:1016100002D56442012000E00020DFF898A0804657
:101620000027FA44AAF1BE0A0EE0E0070AD03246CB
:10163000684607EB470101230AEB810100F0DEFA5F
:101640008DE8070064107F1C002CEED1194F7F44F9
:10165000AE3F19E0E80715D007EB04100DF1180AAA
:1016600090E80E008AE80E00C068F04201D1981997
:1016700008903246012306A903A800F0BFFA03AB85
:1016800083E807006D10641C002DE3D14FF00103C7
:1016900032466946B8F1000F03A802D000F099FA6B
:1016A00001E000F0ABFAC9E90001C9F808200AB06E
:1016B000BDE8F087E092000010B50446AFF300806B
:1016C0002046BDE81040FEF7AEBD000001491820DD
:1016D000ABBEFEE72600020070475FEA400C08BF81
:1016E00091F0000F4FEA8C234FEAC12243EA515197
:1016F0004FEA1C5018BF00F5F0404FEA300018BF09
:1017000041F000415FEA6C5C00F02980BCF1FF3FD2
:1017100008BF40F080407047130C06BF12044FF022
:10172000100C4FF0000C130E04BF12020CF1080C49
:10173000130F04BF12010CF1040C930F04BF9200AD
:101740000CF1020CD30F04BF52000CF1010C114636
:101750004FF00002A0F11F00A0EB0C00704711F049
:10176000004F08BF704731F000413FF4D5AF0B0C7C
:1017700006BF09044FF0100C4FF0000C0B0E04BF15
:1017800009020CF1080C0B0F04BF09010CF1040C49
:101790008B0F04BF89000CF1020CCB0F04BF490072
:1017A0000CF1010CCCF12003A0EB0C0022FA03F3A6
:1017B00002FA0CF241EA030100F10100704720F047
:1017C0007F4C80EA030023F07F47ACEB070303F56F
:1017D0007C5300F0004003F1FF032DE980494FEAFC
:1017E000154B09B44FEA144325EA0B4E24EA03488B
:1017F0000FF2042606EB132749083E785FEA32020F
:1018000003FB0667C7F5000707FB06F64FEA5437E8
:101810004FEAD64606F1020607FB066CCCF1005CE7
:101820004FEA1C472CEA074C07FB06F40CFB06F5B5
:1018300004EB15464FEA961634BF00204FF00040E7
:101840004FEAD13706FB07FC4FEA1C4C0CFB0BF7A9
:10185000D21B03FB0CF761EB07010CFB0EF7B0EB9F
:10186000074072EB17420CFB08F734BFA2EB0742AC
:10187000B2EB074261EB17414FEA0C444FEA910784
:1018800006FB07FC4FEA1C4C0CFB0BF7B0EBC74008
:1018900072EB573203FB0CF734BFA2EBC742B2EB3B
:1018A000C74261EB57310CFB0EF7B0EBC70072EB90
:1018B00057720CFB08F734BFA2EBC702B2EBC702AA
:1018C00061EB5771039F4FEA816141EA921104EB8A
:1018D000CC044FEAD1374FEA826206FB07FC42EAAA
:1018E00090124FEA80604FEA1C4C0CFB0BF7D21BA6
:1018F00003FB0CF761EB07010CFB0EF7B0EB0740A5
:1019000072EB17420CFB08F734BFA2EB0742B2EBB5
:10191000074261EB17414FEA8C554FEA910704EB00
:101920009C2406FB07FC4FEA1C4C0CFB0BF7B0EBAE
:10193000C74072EB573203FB0CF734BFA2EBC74230
:10194000B2EBC74261EB57310CFB0EF7B0EBC700AF
:1019500072EB57720CFB08F734BFA2EBC702B2EB75
:10196000C70261EB577115EB4C254FEA816141EAE3
:1019700092114FEA82624FEAD13742EA901206FB97
:1019800007FC44F100044FEA80604FEA1C4C0CFB5A
:101990000BF7D21B03FB0CF761EB07010CFB0EF7F7
:1019A000B0EB074072EB17420CFB08F734BFA2EB19
:1019B0000742B2EB074261EB174115EB1C154FEAEA
:1019C000813141EA92414FEA823242EA90424FEA43
:1019D00080304FEA0C7644F1000448EA03434EEAB3
:1019E0000B484FF0000EB2EB080C71EB030724BF5D
:1019F000624639464EEB0E0E4FF0000B0018524176
:101A000049414BEB0B0BB2EB080C71EB03077BF17D
:101A1000000B24BF624639464EEB0E0E4FF0000B12
:101A20000018524149414BEB0B0BB2EB080C71EB28
:101A300003077BF1000B24BF624639464EEB0E0EC6
:101A400051EA020718BF46F0010616EB0E7655F173
:101A5000000254F1000103D5BDE88901BDE800880A
:101A6000BDE88901BDE80048B619524141EB0101CA
:101A7000A3F10103704780807F7E7D7C7B7A79783B
:101A8000777676757473727171706F6E6E6D6C6C43
:101A90006B6A6A69686867666665646463636261E5
:101AA0006160605F5F5E5E5D5D5C5C5B5B5A5A5966
:101AB00059585857575656555555545453535252D2
:101AC0005251515050504F4F4F4E4E4D4D4D4C4C2A
:101AD0004C4B4B4B4A4A4A49494948484847474773
:101AE00047464646454545444444444343434342B0
:101AF000424242414141002B9C4630D477002BD0DA
:101B00001CB54FEA370703B44FF010004FF0100137
:101B1000BAF1000F06D0BCF1000FDCBF40F00800A6
:101B200040F008014FF000000FBCBDE810400BF181
:101B3000010BBBF1010F08BF5FEA170722BF12F1CB
:101B4000010211F101014FF0004143F1000300F0E7
:101B5000004043EA00007047F9D35708D0E746EA4F
:101B6000064613F1400F4FEA16461FDD13F1200F12
:101B7000DFBF16430A46002120335B42BED0C3F1CB
:101B8000200746EA064602FA07F74FEA164646EAF3
:101B90000706C3F1200722FA03F201FA07F721FA38
:101BA00003F14FF0000342EA0702A7E746EA020604
:101BB00046EA06464FEA164646EA0106BCBF46EA32
:101BC0000646360C4FF000034FF000024FF00001C4
:101BD00094E72DE9804C9A46934670B491E838001A
:101BE00007C831EA400C48BF34EA430C03D5FFF77D
:101BF000E6FDFFF780FFF0BCBDE8008C2DE9804CCE
:101C00009A46934670B491E8380007C810F0804FA8
:101C100008BF13F0804F03D100F005F8FFF76BFF0A
:101C2000F0BCBDE8008C20F07F4780EA030023F081
:101C30007F4C07EB0C03A3F57C5300F00040A3F1AD
:101C4000FE0392F0000F00F0B38095F0000F00F05B
:101C500077802DE901494FEA11404FEA144621EA05
:101C6000004800FB06FC24EA064708FB06F607FBD3
:101C700008F800FB07F718EB06484CEB164C4FEA48
:101C8000124B18EB07484FEA15464CEB174022EA77
:101C90000B4E0BFB06FC25EA06470EFB06F607FB80
:101CA0000EFE0BFB07F71EEB064E4CEB164C4FF0EF
:101CB00000061EEB074E4CEB174B18EB0B0840F1E0
:101CC000000018EB0E0B58EB000840F100008F1AD3
:101CD0004FF000013CBFC943661B14BFB5EB040CB9
:101CE00000213CBFC943F61B4FEA17444EEA8E0E53
:101CF00027EA04454FEA1C4704FB07622CEA074C1D
:101D000005FB07F70CFB05F604FB0CFC16EB07467E
:101D100042EB174216EB0C4642EB1C421BEB06064D
:101D200058EB0202414146EA9E0601D5BDE8018911
:101D3000B619524141EB0101A3F10103BDE801894C
:101D40004FEA14454FEA114724EA054621EA074CB9
:101D500005FB07F406FB07F70CFB06F105FB0CFC83
:101D600011EB074144EB17444FEA124711EB0C41CA
:101D700044EB1C4422EA074C05FB07F206FB07F77D
:101D80000CFB06F605FB0CFC16EB074642EB174274
:101D900016EB0C4642EB1C456A1854F1000148BF93
:101DA0007047B619524141EB0101A3F1010370479D
:101DB00095F0000F37D04FEA11424FEA144721EA5D
:101DC000024624EA074C02FB07F106FB07F70CFB6F
:101DD00006F402FB0CFC14EB074441EB17414FEAFD
:101DE000154714EB0C4441EB1C4125EA074C02FB60
:101DF00007F506FB07F70CFB06F602FB0CFC16EBDF
:101E0000074645EB174516EB0C4645EB1C421219ED
:101E100051F1000148BF7047B619524141EB010131
:101E2000A3F1010370474FEA14454FEA114724EA32
:101E3000054621EA074C05FB07F106FB07F70CFBFB
:101E400006F24FF0000605FB0CFC12EB074241EBDB
:101E5000174112EB0C4251EB1C4148BF70479218DE
:101E600041EB0101A3F10103704770B50446002561
:101E70002068806800F0010018B32068806820F0B6
:101E800001002168886000F0B7FE054613E000F00D
:101E9000B3FE401B02280ED92068806800F00100C4
:101EA00048B1A06A40F01000A062E06A40F0010072
:101EB000E062012070BD2068806800F00100002809
:101EC000E5D10020F6E770B505466C6AA06A00F01F
:101ED0005000E0B9A06A40F40070A06220688068F9
:101EE00000F46020B0F5602F0DD1207B58B9A06AB6
:101EF00020F48070A062A06A00F4805018B9A06A33
:101F000040F00100A062204600F04EF903E0206A94
:101F1000016B2846884770BD70B505466C6AA06A9B
:101F200040F04000A062E06A40F00400E062204619
:101F300000F03CF970BD70B50446656A284600F0B3
:101F400034F970BD38B504460025002000902068A3
:101F5000806800F0010078BB2068806840F00100D4
:101F600021688860194800681949B0FBF1F00090B9
:101F700002E00098401E009000980028F9D100F07F
:101F80003BFE054619E000F037FE401B022814D93D
:101F90002068806800F0010078B9A06A40F0100065
:101FA000A062E06A40F00100E06200BF002084F817
:101FB000240000BF012038BD05E02068806800F0E3
:101FC00001000028DFD00020F5E700009C00002081
:101FD00040420F0000BF052003F0CBFEFBE700BF2F
:101FE000FEE7000010B5024800F020FB10BD000025
:101FF0002C05002010B5024800F018FB10BD0000B1
:102000005006002010B5024800F010FB10BD000083
:102010009406002030B590F840500124AC40C56BC8
:102020006C60046863604468102C04D10468A2608A
:102030000468E16003E00468A1600468E26030BD08
:10204000704772B600BFFEE738B502460023002095
:10205000009000BF92F82400012801D1022038BD71
:10206000012082F8240000BF4868072812D21068B7
:10207000406B0C79641E04EB84051F24AC40A04324
:102080000D796D1E05EB85050C68AC402043146886
:10209000606327E048680D2812D21068006B0C7945
:1020A000E41F04EB84051F24AC40A0430D79ED1F11
:1020B00005EB85050C68AC4020431468206311E0F3
:1020C0001068C06A0C790D3C04EB84051F24AC40F9
:1020D000A0430D790D3D05EB85050C68AC40204310
:1020E0001468E06208680A2812D31068C0680C7887
:1020F0000A3C04EB44050724AC40A0430D780A3D9C
:1021000005EB45058C68AC4020431468E0600FE0A7
:10211000106800690C7804EB44050724AC40A04328
:102120000D7805EB45058C68AC40204314682061B0
:102130000868102802D00868112827D1174C1068A9
:10214000A0421ED11068806800F40000F0B9106849
:10215000806840F400001468A0600868102815D159
:102160000F4800680F4CB0FBF4F000EB800040001B
:10217000009002E00098401E009000980028F9D1DD
:1021800004E0906A40F020009062012300BF00202C
:1021900082F8240000BF184661E7000000240140D7
:1021A0009C00002040420F007047704770470000BD
:1021B0002DE9F0410446002700250026A84614B961
:1021C0000120BDE8F081A06810B1207D00B100BF02
:1021D000A06A30B90020E06284F82400204600F0B4
:1021E00089F82046FFF741FE0746A06A00F010007C
:1021F000002873D1002F71D1A06A20F4885040F0DC
:102200000200A062E16960680843217B40EA410066
:102210000643A068B0F5807F02D0A068012802D1F3
:102220004FF4807000E000200543207D012811D18B
:10223000207B38B9A069401E4FF4006141EA40306C
:10224000054307E0A06A40F02000A062E06A40F089
:102250000100E0622068406820F46940284321685A
:1022600048602068806821490840304321688860C0
:10227000A068B0F5807F02D0A068012802D14FF499
:10228000807000E00020B0F5807F03D1208A401EDE
:102290004FEA00582068C06A20F4700040EA080045
:1022A0002168C8622068806811490840B04208D19E
:1022B0000020E062A06A20F0020040F00100A0626D
:1022C00011E0A06A20F0020040F01000A062E06A75
:1022D00040F00100E062012705E0FFE7A06A40F05E
:1022E0001000A062012738466BE70000FDF7E1FF10
:1022F000FE0E1FFF10B586B004460020029003902A
:10230000049005902249206888423FD100BF2148AF
:10231000806940F400701F4988610846806900F4B4
:102320000070019000BF00BF00BF0846806940F008
:10233000040088610846806900F00400019000BF35
:1023400000BF052002900320039002A9124800F06C
:10235000BDFA124812490860002048600021104868
:1023600081608021C1608900016189004161002193
:1023700081614FF48051C16100F026FA08B1FFF786
:1023800060FE00BF06482062446200BF06B010BD78
:1023900000240140001002400008014008000240F3
:1023A0002C0500202DE9F04104460D461646002775
:1023B00057492068884203D056492068884205D191
:1023C0005348001D006800F4702000E00020002841
:1023D0007ED100BF94F82400012802D10220BDE87C
:1023E000F081012084F8240000BF2046FFF7AAFDF9
:1023F0000746002F6DD1A06A40F60161884340F482
:102400008070A06243492068884209D14048001D7D
:10241000006800F4702008B9012002E0002000E00C
:10242000012078B1A06A20F48010A0622068406882
:1024300000F4806000B3A06A20F4005040F48050A3
:10244000A06219E0A06A40F48010A06230492068C0
:10245000884203D02F492068884205D12C48001DAE
:10246000006800F4806000E0002028B1A06A20F439
:10247000005040F48050A062A06A00F4805020B167
:10248000E06A20F00600E06201E00020E06200BFA8
:10249000002084F8240000BF1F48216A88621F487A
:1024A000216AC8621E48216A08636FF00200216831
:1024B00008602068806840F4807021688860226825
:1024C00002F14C0133462A46206A00F0B1F901E0DE
:1024D0001AE014E02068806800F46020B0F5602FF6
:1024E00006D12068806840F4A000216888600CE074
:1024F0002068806840F480102168886005E000BF93
:10250000002084F8240000E00127384667E7000037
:102510000024014000280140C71E0008371F0008A2
:10252000191F00080146002291F82100022808D056
:102530000420886300BF002081F8200000BF012034
:1025400070470868006820F00E000B681860086883
:10255000006820F001000B68186091F840300120FD
:102560009840CB6B5860012081F8210000BF00200B
:1025700081F8200000BF1046E2E7000070B5044675
:10258000002594F82100022803D00420A06301252F
:1025900048E02068006820F00E002168086020688C
:1025A000006820F00100216808601F492068884207
:1025B00001D1012026E01C4914312068884201D154
:1025C00010201FE0184928312068884201D1801569
:1025D00018E015493C312068884201D1801411E08F
:1025E000114950312068884202D14FF4803009E00F
:1025F0000D4964312068884202D14FF4801001E017
:102600004FF08070084908394860012084F82100A3
:1026100000BF002084F8200000BF606B10B120468E
:10262000616B8847284670BD0800024070B50446BB
:10263000E06B05682068066894F840100420884024
:102640002840002846D006F00400002842D0206828
:10265000006800F0200028B92068006820F004001D
:102660002168086057492068884201D1042027E08A
:10267000544914312068884201D1402020E051495A
:1026800028312068884201D1001519E04D493C31BC
:102690002068884202D14FF4804011E0494950310E
:1026A0002068884202D14FF4802009E04549643116
:1026B0002068884202D14FF4800001E04FF0806032
:1026C000404908394860E06A00287AD02046E16A2B
:1026D000884776E094F84010022088402840A0B354
:1026E00006F0020088B32068006800F0200040B9BE
:1026F0002068006820F00A0021680860012084F842
:10270000210030492068884201D1022028E02D496B
:1027100014312068884201D1202021E02949283144
:102720002068884201D140151AE026493C312068D2
:10273000884202D14FF4005012E022495031206803
:10274000884203D14FF400300AE017E01D4964319C
:102750002068884202D14FF4001001E04FF0007071
:1027600018490839486000BF002084F8200000BFE5
:10277000A06A30B32046A16A884722E094F840104E
:10278000082088402840E0B106F00800C8B1206861
:10279000006820F00E002168086094F840100120C5
:1027A0008840E16B48600120A06384F8210000BFED
:1027B000002084F8200000BF206B10B12046216B60
:1027C000884770BD080002400146002209B9012077
:1027D0007047164B0868C01A1423B0FBF3F0800052
:1027E000086412480838C863022081F8210008688C
:1027F000026843F6F0708243D1E901031843CB68C5
:1028000018430B6918434B6918438B691843CB690C
:10281000184302430868026000208863012081F8A1
:102820002100002081F8200000BFD1E7080002400D
:102830002DE9F04104460D4616461F464FF00008AC
:1028400000BF94F82000012802D10220BDE8F081E9
:10285000012084F8200000BF94F8210001282CD129
:10286000022084F821000020A0632068006820F086
:102870000100216808603B46324629462046FFF7A2
:10288000C9FBE06A30B12068006840F00E002168A2
:1028900008600BE02068006820F0040021680860F0
:1028A0002068006840F00A0021680860206800681D
:1028B00040F001002168086006E000BF002084F8B5
:1028C000200000BF4FF002084046BFE72DE9F8475F
:1028D0000346002294466EE14FF0010808FA02F424
:1028E000D1F8008008EA0400A0427DD1DFF8DCA224
:1028F000D1F80480A8EB0A09D0453AD014DCB8F12D
:10290000030F50D009DCB8F1000F31D0B8F1010F3E
:102910001CD0B8F1020F49D120E0B8F1110F18D046
:10292000B8F1120F42D11EE0B9F5881F25D006DCA0
:10293000B9F5803F20D0B9F5801F37D11AE0B9F53D
:10294000001F18D0B9F5041F30D117E0D1F80CC022
:102950002DE0D1F80C8008F1040C28E0D1F80C80AF
:1029600008F1080C23E0D1F80C8008F10C0C1EE0F3
:1029700000BF00BF00BF00BF00BF00BFD1F808808C
:10298000B8F1000F02D14FF0040C0BE0D1F8088031
:10299000B8F1010F03D14FF0080C1C6102E04FF0B9
:1029A000080C5C6103E04FF0000C00E000BF00BFCA
:1029B000FF2801D8984601E003F104084646FF28A5
:1029C00002D84FEA820803E0A2F108084FEA88081B
:1029D0004746D6F800804FF00F0909FA07F928EAB0
:1029E00009080CFA07F900E088E048EA0908C6F887
:1029F0000080D1F8048008F08058B8F1805F7DD164
:102A000000BFDFF8CC81D8F8188048F00108DFF863
:102A1000C091C9F81880C846D8F8188008F0010895
:102A2000CDF8008000BF00BF4FEAB9384FEA9209E5
:102A300058F829504FEA82784FEA18794FF00F087A
:102A400008FA09F825EA0805DFF88881434502D12C
:102A50004FF0000816E0DFF88081434502D14FF0C7
:102A600001080FE0DFF87481434502D14FF00208FE
:102A700008E0DFF86C81434502D14FF0030801E024
:102A80004FF004084FEA82794FEA197908FA09F8F9
:102A900048EA0505DFF84C814FEA920948F82950C9
:102AA000D1F8048008F48038B8F5803F0AD1DFF807
:102AB0003881D8F8008048EA0008DFF82C91C9F87E
:102AC000008009E0DFF82081D8F8008028EA0008BB
:102AD000DFF81491C9F80080D1F8048008F40038B8
:102AE000B8F5003F10D1DFF8008108F10408D8F8EC
:102AF000008048EA0008DFF8F09000E05AE009F1B1
:102B00000409C9F800800DE0DFF8DC8008F1040852
:102B1000D8F8008028EA0008DFF8CC9009F1040911
:102B2000C9F80080D1F8048008F48018B8F5801F37
:102B30000ED1DFF8B48008F10808D8F8008048EA20
:102B40000008DFF8A49009F10809C9F800800DE039
:102B5000DFF8948008F10808D8F8008028EA000817
:102B6000DFF8849009F10809C9F80080D1F80480E1
:102B700008F40018B8F5001F0ED1DFF86C8008F1DA
:102B80000C08D8F8008048EA0008DFF85C9009F1EA
:102B90000C09C9F800800DE0DFF84C8008F10C0842
:102BA000D8F8008028EA0008DFF83C9009F10C0909
:102BB000C9F80080521CD1F8008028FA02F8B8F158
:102BC000000F7FF489AEBDE8F88700000000111007
:102BD0000010024000080140000C014000100140BC
:102BE0000014014008000140000401400AB10161E5
:102BF00001E00B0403617047014800687047000062
:102C000090000020034800680349097808440149FE
:102C100008607047900000209800002010B5084818
:102C2000006840F0100006490860032000F0CCF86E
:102C3000002000F007F800F049F8002010BD000067
:102C40000020024070B588B004460025002600220E
:102C50002146192000F07AF8192000F067F800BF2B
:102C60001648806940F4006014498861084680690C
:102C700000F40060019000BF00BF02A903A800F0AB
:102C800015FA00F04BFA05460D48B5FBF0F0461E6C
:102C90000C480D49086040F2E7310B48C1604660BE
:102CA00000210161816000F061FD20B9064800F05B
:102CB00091FD08B070BD0120FBE70000001002404C
:102CC00040420F00002C0140D806002008B500BF8C
:102CD0001448806940F00100124988610846806903
:102CE00000F00100009000BF00BF00BF0846C069AF
:102CF00040F08050C8610846C06900F080500090E4
:102D000000BF00BF00220F21901E00F01FF800BF7F
:102D10000549486820F0E06040F00070486000BF5E
:102D200008BD0000001002400000014001460846B6
:102D3000002809DB00F01F0301229A4043099B0091
:102D400003F1E023C3F8002100BF70472DE9F05FD5
:102D500080460D461646002702F00EF80746394613
:102D60002A46334601F00700C0F1070ABAF1040F02
:102D700002D94FF0040A01E0C0F1070AD14600F180
:102D8000040ABAF1070F02D24FF0000A01E0A0F1E5
:102D9000030AD4464FF0010A0AFA09FAAAF1010A15
:102DA0000AEA020A0AFA0CFA4FF0010B0BFA0CFBC2
:102DB000ABF1010B0BEA030B4AEA0B042146404638
:102DC00001F0E2FFBDE8F09F00BF00F00702064BF4
:102DD00019684FF6FF031940044B0B4343EA0221E5
:102DE000014B196000BF70470CED00E00000FA05D0
:102DF000F8B5044600260025207800F001000028E0
:102E00006BD000274348C06900F0805070B900BF04
:102E10004048C06940F080503E49C8610846C069DA
:102E200000F08050009000BF00BF01273A480068C2
:102E300000F48070B0B93848006840F480703649BA
:102E40000860FFF7D9FE064606E0FFF7D5FE801BB7
:102E5000642801D90320F8BD2F48006800F4807071
:102E60000028F2D02B48006A00F440752DB3A088EA
:102E700000F44070A84220D02648006A20F4407533
:102E8000012026490860002008602248056205F0FC
:102E9000010090B1FFF7B0FE064608E0FFF7ACFE78
:102EA000801B41F28831884201D90320D3E71948B9
:102EB000006A00F002000028F0D01648006A20F4F2
:102EC00040706168084313490862012F04D1084625
:102ED000C06920F08050C86100BF207800F0020077
:102EE000022807D10B48406820F44040A1680843FD
:102EF00008494860207800F01000102807D10548E4
:102F0000406820F48000E1680843024948600020DE
:102F1000A1E700000010024000700040400442425F
:102F200070B504460D460CB9012070BD5A480068C2
:102F300000F00700A8420ED25748006820F00700B2
:102F40002843554908600846006800F00700A84279
:102F500001D00120E9E7207800F0020002281DD10D
:102F6000207800F00400042805D14C48406840F463
:102F7000E0604A494860207800F00800082805D140
:102F80004648406840F460504449486043484068BF
:102F900020F0F000A168084340494860207800F024
:102FA000010078B36068012806D13C48006800F44D
:102FB000003090B90120B8E76068022806D1374890
:102FC000006800F0007040B90120AEE733480068A7
:102FD00000F0020008B90120A7E73048406820F05F
:102FE0000300616808432D494860FFF705FE064667
:102FF00009E0FFF701FE801B41F28831884202D9C7
:10300000032092E707E02548406800F00C00616863
:10301000B0EB810FEDD12048006800F00700A84216
:103020000ED91D48006820F0070028431A4908609F
:103030000846006800F00700A84201D0012074E7AC
:10304000207800F00400042807D11448406820F4D8
:10305000E060E168084311494860207800F008000A
:10306000082808D10D48406820F46050216940EAE2
:10307000C1000A49486000F061F808494968C1F395
:103080000311074A515CC8400649086006480068B9
:10309000FFF7D8FD002048E7002002400010024062
:1030A000C8A700089C000020940000200F220260A6
:1030B0000D4A526802F0030242600B4A526802F065
:1030C000F0028260084A526802F4E062C260064A76
:1030D000526802F46052D2080261044A126802F097
:1030E00007020A6070470000001002400020024002
:1030F00001480068704700009C00002000B5FFF701
:10310000F7FF04494968C1F30221034A515CC840F2
:1031100000BD000000100240D8A7000800B5FFF76E
:10312000E7FF04494968C1F3C221034A515CC84022
:1031300000BD000000100240D8A70008F0B585B01F
:103140000FF26C0C9CE8E01001A8A0E8E0101CA5B0
:103150002D68009500210022002300240020194D35
:10316000696801F00C05F5B1042D02D0082D19D1C4
:1031700001E0154819E001ADC1F38346AC5D01F4EF
:10318000803555B10F4D6D68C5F340451DF80520DC
:103190000D4D6543B5FBF2F302E00C4D04FB05F366
:1031A000184602E000BF084800BF00BF05B0F0BDF0
:1031B00002030405060708090A0B0C0D0E0F101078
:1031C000010200000010024000127A0000093D00D8
:1031D000F8B504460CB90120F8BD207800F00100D4
:1031E000002878D0F848406800F00C0004280CD083
:1031F000F548406800F00C00082811D1F2484068FA
:1032000000F48030B0F5803F0AD1EF48006800F448
:10321000003000285FD0606800285CD10120DBE727
:1032200000BF6068B0F5803F06D1E748006840F411
:103230008030E549086028E0606858B9E2480068D5
:1032400020F48030E04908600846006820F48020BF
:1032500008601AE06068B0F5A02F0BD1DA4800686A
:1032600040F48020D84908600846006840F4803067
:1032700008600AE0D448006820F48030D249086031
:103280000846006820F48020086000BF606888B1AC
:10329000FFF7B2FC054606E0FFF7AEFC401B6428D2
:1032A00001D9032098E7C848006800F400300028DE
:1032B000F2D010E0FFF7A0FC054606E0FFF79CFC0B
:1032C000401B642801D9032086E7BF48006800F44A
:1032D00000300028F2D1207800F00200022857D1F7
:1032E000B948406800F00C0050B1B748406800F0A1
:1032F0000C00082818D1B448406800F4803098B910
:10330000B148006800F0020020B12069012801D016
:10331000012061E7AC48006820F0F800616940EAEC
:10332000C100A949086033E02069E8B10120A7493C
:103330000860FFF761FC054606E0FFF75DFC401BF7
:10334000022801D9032047E79F48006800F00200E7
:103350000028F2D09C48006820F0F800616940EA3B
:10336000C1009949086013E0002098490860FFF700
:1033700043FC054606E0FFF73FFC401B022801D94D
:10338000032029E79048006800F002000028F2D1ED
:10339000207800F0080008282DD1A069B8B10120DC
:1033A0008B490860FFF728FC054606E0FFF724FC80
:1033B000401B022801D903200EE78348406A00F031
:1033C00002000028F2D0012001F00CF913E00020E7
:1033D0007F490860FFF710FC054606E0FFF70CFC8C
:1033E000401B022801D90320F6E67748406A00F026
:1033F00002000028F2D1207800F00400042873D1E4
:1034000000277148C06900F0805070B900BF6E4855
:10341000C06940F080506C49C8610846C06900F03E
:103420008050009000BF00BF01276A48006800F488
:103430008070B0B96748006840F4807065490860E2
:10344000FFF7DAFB054606E0FFF7D6FB401B6428D2
:1034500001D90320C0E65F48006800F480700028AE
:10346000F2D000BFE068012806D15748006A40F05A
:1034700001005549086227E0E06858B95248006ADF
:1034800020F00100504908620846006A20F004005C
:10349000086219E0E06805280BD14B48006A40F04B
:1034A0000400494908620846006A40F001000862C9
:1034B0000AE04548006A20F00100434908620846D6
:1034C000006A20F00400086200BFE068A0B1FFF7C6
:1034D00093FB054609E0FFF78FFB401B41F2883163
:1034E000884202D9032077E622E03748006A00F0DC
:1034F00002000028EFD012E0FFF77EFB054608E04F
:10350000FFF77AFB401B41F28831884201D9032042
:1035100062E62D48006A00F002000028F0D1012F79
:1035200005D12948C06920F080502749C86100BFF3
:10353000E069C8B32448406800F00C00082860D057
:10354000E069022848D1002020490866FFF754FBB3
:10355000054606E0FFF750FB401B022801D9032077
:103560003AE61948006800F000700028F2D1206A9D
:10357000B0F5803F07D11448406820F40030A168BE
:10358000084311494860D4E9080108430E494968D5
:1035900021F4741108430C49486001200B49086666
:1035A000FFF72AFB054607E03DE0FFF725FB401B40
:1035B000022801D903200FE60348006800F00070DC
:1035C0000028F2D02FE0000000100240000042422C
:1035D0008004424200700040002014490866FFF752
:1035E0000BFB054606E0FFF707FB401B022801D94D
:1035F0000320F1E50E48006800F000700028F2D1C9
:1036000011E0E069012800D1E6E50948466806F4C2
:103610008031206A814204D106F47011606A8142CF
:1036200001D00120D8E50020D6E50000000042428C
:103630000010024010B504460CB9012010BD606AAC
:1036400038B96068B0F5827F00D105E00021E16102
:1036500002E00021216161610021A16294F8510022
:1036600028B9002084F85000204600F043F80220DA
:1036700084F851002068006820F04000216808604C
:10368000A08800F48270218901F404410843A189D3
:1036900001F400610843217C01F002010843217D0F
:1036A00001F001010843218B01F400710843217FDF
:1036B00001F0380108432021095D01F08001084331
:1036C000218D01F400510843216808600421A0699C
:1036D00001EA1040216848602068C06920F4006059
:1036E0002168C86100206065012084F85100002035
:1036F000A4E7000010B586B00446002002900390B5
:103700000490059015492068884225D100BF1448CF
:10371000C06940F480401249C8610846C06900F49D
:103720008040019000BF00BF00BF0846806940F0A4
:10373000080088610846806900F00800019000BF19
:1037400000BF4FF430400290022003900320059008
:1037500002A90448FFF7BAF806B010BD00380040CF
:1037600000100240000C01407047704710B504463D
:103770000CB9012010BD94F83D0028B9002084F850
:103780003C00204600F025F8022084F83D00211D71
:10379000206800F0A7FF012084F8460000BF84F8ED
:1037A0003E0001213F200155402001554120015597
:1037B00000BF00BF012084F842004320015544208F
:1037C00001554520015500BF012084F83D0000202F
:1037D000D0E77047014691F83D00012801D0012053
:1037E0007047022081F83D000868C06840F0010081
:1037F0000B68D860124B086898420BD00868B0F18B
:10380000804F07D00F4B0868984203D00E4B0868D2
:1038100098420CD10868806800F00702062A0CD094
:103820000868006840F001000B68186005E008684F
:10383000006840F001000B6818600020D0E700002D
:10384000002C01400004004000080040704710B503
:10385000044620680069C0F34000D8B12068C06801
:10386000C0F34000B0B16FF0020021680861012090
:1038700020772068806900F0030018B12046FFF728
:10388000E5FF05E0204600F0ADF8204600F0ABF87B
:103890000020207720680069C0F38000D8B120683C
:1038A000C068C0F38000B0B16FF004002168086107
:1038B000022020772068806900F4407018B120460B
:1038C000FFF7C4FF05E0204600F08CF8204600F02A
:1038D0008AF80020207720680069C0F3C000D8B1C2
:1038E0002068C068C0F3C000B0B16FF00800216864
:1038F0000861042020772068C06900F0030018B137
:103900002046FFF7A3FF05E0204600F06BF82046B5
:1039100000F069F80020207720680069C0F30010EB
:10392000D8B12068C068C0F30010B0B16FF01000CB
:1039300021680861082020772068C06900F4407081
:1039400018B12046FFF782FF05E0204600F04AF854
:10395000204600F048F8002020772068006900F039
:10396000010058B12068C06800F0010030B16FF06C
:10397000010021680861204600F036F820680069DF
:10398000C0F3C01058B12068C068C0F3C01030B197
:103990006FF08000216808612046FFF7E5FE20688F
:1039A0000069C0F3801058B12068C068C0F380106F
:1039B00030B16FF0400021680861204600F020F827
:1039C00020680069C0F3401058B12068C068C0F397
:1039D000401030B16FF02000216808612046FFF7E9
:1039E000C4FE10BD7047704710B5044603492068F7
:1039F000884201D1FFF706F910BD0000002C0140FC
:103A00007047704770B50446002520684069C0F3D0
:103A1000C01594F83D0021280ED16DB12068406991
:103A200020F0800021684861606B10B1606BFEF788
:103A300079FD204600F065FF20684069C0F38015DD
:103A400094F83E0022280ED16DB12068406920F024
:103A5000400021684861A06B10B1A06BFEF762FDC9
:103A6000204600F023FF002070BD70472DE9F84F7D
:103A70000446206805682068C668206847694FF0DA
:103A80000009CA4605F00F09B9F1000F0AD105F087
:103A9000200038B106F0200020B1204600F03BFFA6
:103AA000BDE8F88FB9F1000F71D007F0010018B927
:103AB00006F4907000286AD005F0010030B106F4D9
:103AC000807018B1206C40F00100206405F0040003
:103AD00030B107F0010018B1206C40F00200206402
:103AE00005F0020030B107F0010018B1206C40F081
:103AF0000400206405F0080048B106F0200010B969
:103B000007F0010018B1206C40F008002064206C20
:103B100068B305F0200028B106F0200010B120465F
:103B200000F0F9FE20684069C0F3801A206C00F0B4
:103B3000080010B9BAF1000F22D0204600F0B6FEFE
:103B40002068406900F04000B0B12068406920F072
:103B5000400021684861A06B50B15648A16B486392
:103B6000A06BFEF70BFD10B1A06B416B88470CE01A
:103B70002046FFF77AFF08E02046FFF776FF04E0D3
:103B80002046FFF772FF0020206489E7FFE7206BE3
:103B9000012878D105F01000002874D006F010003C
:103BA000002870D000BF00200090206800680090BE
:103BB00020684068009000BF00BF2068406900F0A6
:103BC0004000C0B3A06B006840681FFA80F8B8F1ED
:103BD000000F2FD0A08D40452CDDA4F82E80A06BC7
:103BE000806920281FD02068C06820F48070216878
:103BF000C8602068406920F00100216848612068A1
:103C0000406920F0400021684861202084F83E008F
:103C1000002020632068C06820F010002168C86080
:103C2000A06BFEF77FFCA08DE28D801A81B220464A
:103C3000FFF7E7FE34E7FFE7A08DE18D401A1FFA9A
:103C400080F8E08DE8B1B8F1000F1AD02068C068A4
:103C500020F490702168C8602068406920F001005D
:103C600021684861202084F83E00002020632068FD
:103C7000C06820F010002168C86041462046FFF768
:103C8000C0FE0DE7FFE705F0800030B106F08000D0
:103C900018B1204600F07CFF02E705F0400030B18B
:103CA00006F0400018B1204600F01BFEF8E600BF09
:103CB000F6E600007D47000810B504460CB9012067
:103CC00010BDA06900B100E000BF94F83D0028B924
:103CD000002084F83C00204600F028F8242084F8D6
:103CE0003D002068C06820F400502168C86020466C
:103CF00000F084FE2068006920F49040216808618B
:103D00002068406920F02A00216848612068C06866
:103D100040F400502168C86000202064202084F80E
:103D20003D0084F83E000020CAE7000010B586B0D0
:103D300004460020029003900490059057492068A3
:103D4000884236D100BF5648806940F480405449CB
:103D500088610846806900F48040019000BF00BF80
:103D600000BF0846806940F0080088610846806905
:103D700000F00800019000BF00BF40200290022028
:103D800003900320059002A94648FEF79FFD80207E
:103D9000029000200390049002A94248FEF796FD8D
:103DA00000BF4149486840F0E06040F004004860CE
:103DB00071E03E49206888426DD100BF3848C06933
:103DC00040F480203649C8610846C06900F480206C
:103DD000019000BF00BF00BF0846806940F00800A6
:103DE00088610846806900F00800019000BF00BFAC
:103DF00008150290022003900320059002A929488B
:103E0000FEF764FD4FF400600290002003900490E0
:103E100002A92448FEF75AFD2548264908601020CB
:103E200048600021234881608021C1600021016138
:103E3000416181614FF48051C161FEF7C5FC08B159
:103E4000FEF7FFF800BF1B486063446200BF1848DC
:103E5000143019490860002048600021164881602C
:103E60008021C16000210161416181614FF40051F5
:103E7000C161FEF7A9FC08B1FEF7E3F800BF0E48E8
:103E8000A063446200BF002205212720FEF75EFFE9
:103E90002720FEF74BFF06B010BD000000380140A0
:103EA00000100240000C01400000014000480040AA
:103EB0001C00024050060020940600202DE9F84F17
:103EC00004460E46174699464FF0000A94F83E0005
:103ED00020285FD106B117B90120BDE8F88F00BFD7
:103EE00094F83C00012801D10220F6E7012084F873
:103EF0003C0000BF00202064222084F83E00002007
:103F00002063FEF779FE8246A785E785A068B0F5B5
:103F1000805F04D1206910B90025B04602E0354623
:103F20004FF0000800BF002084F83C0000BF29E0EB
:103F30005346002220212046CDF8009000F058FE84
:103F400008B10320C9E745B920684068C0F30800FC
:103F5000A8F8000008F1020811E0A068B0F5805F41
:103F600003D0A06828B9206918B920684068287073
:103F700004E02068406800F07F0028706D1CE08D30
:103F8000401EE085E08D0028D2D1202084F83E003C
:103F90000020A2E70220A0E770B504460D461646B1
:103FA00094F83E00202816D105B10EB9012070BD4D
:103FB00000BF94F83C00012801D10220F7E701205E
:103FC00084F83C0000BF002020633246294620468A
:103FD00000F092FDEBE70220E9E7704770472DE91A
:103FE000F84F04460E46174699464FF0000A94F8DB
:103FF0003D0020285AD106B117B90120BDE8F88F3D
:1040000000BF94F83C00012801D10220F6E701200E
:1040100084F83C0000BF00202064212084F83D008B
:10402000FEF7EAFD8246A784E784A068B0F5805FCA
:1040300004D1206910B90025B04602E035464FF0A2
:10404000000800BF002084F83C0000BF1BE053467E
:10405000002280212046CDF8009000F0C9FD08B173
:104060000320CBE745B9B8F80000C0F30800216889
:10407000486008F1020803E02878216848606D1C58
:10408000E08C401EE084E08C0028E0D15346002202
:1040900040212046CDF8009000F0AAFD08B1032091
:1040A000ACE7202084F83D000020A7E70220A5E728
:1040B000F7B50446154694F83D0020283DD10198F7
:1040C00000B10DB90120FEBD00BF94F83C000128ED
:1040D00001D10220F7E7012084F83C0000BF0198DD
:1040E0002062A584E58400202064212084F83D001E
:1040F0001348616B88621348616BC8621248616B38
:1041000008630020616B486301AE23681A1D3168A3
:104110002B46606BFEF78CFB6FF040002168086057
:1041200000BF002084F83C0000BF2068406940F0D8
:104130008000216848610020C5E70220C3E7000035
:10414000694800089F480008914700087047704779
:1041500000BFFEE7F8B504460020009002250126C6
:1041600064B100901049096888690F490968896934
:10417000D1F834322946009A98470BE00A49096879
:1041800088690949096889696A46D1F82C32294643
:1041900098470646012E05D10098C2B27102034825
:1041A000FEF724FDF8BD00008C000020000C01404B
:1041B00000BF0A48007880F00100084908700846EE
:1041C00002784FF480510648FEF710FD054800784C
:1041D000FFF7C0FF322001F0CCFDEAE71C00002011
:1041E000000801401D0000200EB500200090019045
:1041F000029018481849086081151748816001210C
:104200000173002101754FF46021C1610020124942
:104210004860022110480161FDF7CAFF08B1FDF7AF
:1042200010FF0020009001200190062002906946B6
:104230000948FDF709FF08B1FDF703FF02200090D0
:10424000019069460448FDF7FFFE08B1FDF7F9FE4D
:104250000EBD000000240140FC04002008B500BF92
:104260001248406940F00100104948610846406921
:1042700000F00100009000BF00BF002205210B20CC
:10428000FEF764FD0B20FEF751FD002205210C20F6
:10429000FEF75CFD0C20FEF749FD002205210D20F4
:1042A000FEF754FD0D20FEF741FD08BD0010024051
:1042B00000B5A3B000202190229021A801F06AFD52
:1042C0002649086000201F90209001211FA801F0BE
:1042D00074FD23490860234903C9CDE91D0100226B
:1042E00001211DA801F01AFE1F4908601C221D496A
:1042F000083116A8FCF7FBF81C4916A801F0DEFDF2
:104300001B4908601C22174924310FA8FCF7EFF85D
:1043100000210FA801F0D2FD164908601C221149A6
:10432000403108A8FCF7E3F8002108A801F0C6FD19
:10433000114908601C220B495C3101A8FCF7D7F831
:10434000002101A801F0BAFD0C4908604FF47A7110
:104350000548006801F008FE23B000BD14000020ED
:104360001800002040A40008100000204007002092
:104370000000002004000020080000200C000020A5
:1043800000B585B00020019002900390049000BF1A
:104390004048806940F010003E49886108468069C5
:1043A00000F01000009000BF00BF00BF0846806909
:1043B00040F0200088610846806900F020000090ED
:1043C00000BF00BF00BF0846806940F0040088615C
:1043D0000846806900F00400009000BF00BF00BFE5
:1043E0000846806940F0080088610846806900F04E
:1043F0000800009000BF00BF012241F202012648E0
:10440000FEF7F4FB012202212448FEF7EFFB002215
:104410004FF400712148FEF7E9FB022001900120D2
:10442000029003900220049001A91B48FEF74EFA67
:10443000022001900120029003900220049001A923
:104440001648FEF743FA4FF44060019000200290B6
:104450000120039001A91048FEF738FA4FF480506C
:1044600001900120029003900320049001A90A48C2
:10447000FEF72CFA4FF40070019001200290022008
:1044800003900320049001A90448FEF71FFA05B029
:1044900000BD00000010024000080140000C014077
:1044A00010B50F480F4908604FF482704860002132
:1044B0000C4881604FF40061C160002101614161DD
:1044C0004FF4802181610021C161016241628162FA
:1044D0000A21C162FFF7AEF808B1FDF7B2FD10BDC9
:1044E000003800407005002010B50B480B490860EB
:1044F0004FF4E1304860002108488160C1600161EB
:104500000C21416100218161C161FFF7D5FB08B138
:10451000FDF797FD10BD000000380140C8050020E0
:1045200010B51248124908604FF4E130486000218C
:104530000F488160C16001610C21416100218161EE
:10454000C161FFF7B9FB08B1FDF77BFD08480068C2
:10455000C06840F0100006490968C8600548006856
:10456000FD2241690248FFF717FD10BD00480040D9
:104570000C0600208C00002000BFFEE70EB50320D3
:104580008DF800004FF4E130019004480290044897
:104590009DE80E0000F06EFC0EBD0000D15F00082B
:1045A0008C00002000BF4FF0FF310948006801F087
:1045B00051FC0028F7D107490870074908600748EF
:1045C00000686421C26A054800689047EBE7000074
:1045D000180000201D000020200000208C0000207A
:1045E00000BFFEE708B508490968C9084FF47A72A8
:1045F000B1FBF2F14143009100BF00BF00994A1E98
:1046000000920029F9D108BD9C000020044600BF9B
:10461000204603F0FBFCFBE710B500BF502080F301
:104620001188BFF34F8FBFF36F8F00BF04F0F6FF09
:1046300018B14FF080500449086000BF002080F39B
:10464000118800BF10BD000004ED00E000B593B07C
:10465000282109A8FBF7A7FF142104A8FBF7A3FF53
:104660000020009001900290039001200990000426
:104670000A9000200B9001200D9002201090C103A1
:1046800011914FF4E011129109A8FEF7A1FD08B1B4
:10469000FDF7D7FC0F200490022005900020069023
:1046A0004FF48060079000200890022104A8FEF7D4
:1046B00037FC08B1FDF7C5FC022000908003029092
:1046C0006846FEF795FB08B1FDF7BBFC13B000BDD3
:1046D0007047000010B50248FFF7B9F810BD0000A0
:1046E000D806002010B50268184B984208D0B0F1E7
:1046F000804F05D0164B984202D0164B984203D1FA
:1047000022F070024B681A43104B984208D0B0F167
:10471000804F05D00E4B984202D00E4B984203D1E9
:1047200022F44072CB681A4322F080034C6943EABA
:10473000040202608B68C3620B688362034B984279
:1047400001D10B6903630123436110BD002C0140BB
:10475000000400400008004006490968491C054A59
:1047600011600A2904D9002111600121024A117047
:1047700070470000200000201D00002070B5054695
:104780006C6A0020E085E0842046FFF76EF970BD7A
:1047900070B506460025746A20684069C0F3C015EC
:1047A00094F83D00212805D125B10020E084204661
:1047B00000F0A7F820684069C0F3801594F83E0027
:1047C000222805D125B10020E085204600F06EF8B2
:1047D000206C40F0100020642046FFF746F970BDC1
:1047E00070B505466C6A2868006800F02000F8B9CA
:1047F0000020E0852068C06820F480702168C860CF
:104800002068406920F00100216848612068406903
:1048100020F0400021684861202084F83E00206B91
:10482000012805D12068C06820F010002168C86008
:10483000206B012804D1A18D2046FFF7E2F802E0A9
:104840002046FFF7CAFB70BD70B505466C6A206B49
:10485000012805D1A08D41082046FFF7D2F802E0DB
:104860002046FFF7BBFB70BD70B505466C6A286833
:10487000006800F0200070B90020E08420684069E2
:1048800020F08000216848612068C06840F0400046
:104890002168C86002E02046FFF758FC70BD70B583
:1048A0000446656A2846FFF752FC70BD0168C96876
:1048B00021F490710268D1600168496921F0010119
:1048C00002685161016B012905D10168C96821F0B5
:1048D00010010268D160202180F83E1000210163A0
:1048E000704710B504462068C06820F04000216879
:1048F000C860202084F83D002046FFF727FC0020F8
:1049000010BD0168C96821F0C0010268D160202192
:1049100080F83D107047F8B5044694F83E00222810
:1049200069D1A068B0F5805F0CD1206950B900252D
:10493000A66A20684068C0F308003080A06A801C26
:10494000A06215E0A56A0026A068B0F5805F03D0DC
:10495000A06828B9206918B920684068287004E068
:104960002068406800F07F002870A06A401CA062A8
:10497000E08D401E80B2E085A8BB2068C06820F0B2
:1049800020002168C8602068C06820F48070216819
:10499000C8602068406920F001002168486120203B
:1049A00084F83E00206B01281ED10020206320687F
:1049B000C06820F010002168C8602068006800F01E
:1049C000100010280AD100BF002000902068006865
:1049D000009020684068009000BF00BFA18D204675
:1049E000FFF70FF803E004E02046FFF7F6FA002097
:1049F000F8BD0020FCE70220FAE7000070B504468D
:104A00002168096921F44051E2681143226811616B
:104A10002269A1681143626941EA02052168C968F7
:104A200041F20C62914329432268D16021684969AF
:104A300021F44071A2691143226851612D4A216815
:104A4000914202D1FEF76AFB01E0FEF757FB00EB53
:104A5000C00101EB001162689200B1FBF2F100EBC2
:104A6000C00202EB001263689B00B2FBF3F2642306
:104A7000B2FBF3F202EBC20303EB0212A1EB8201E1
:104A8000322202EB01116422B1FBF2F101F0F001DC
:104A900000EBC00202EB001263689B00B2FBF3F272
:104AA0006423B2FBF3F201EB021200EBC00101EB55
:104AB000001163689B00B1FBF3F100EBC00303EB53
:104AC00000136668B600B3FBF6F36426B3FBF6F397
:104AD00003EBC30606EB0313A1EB8301322303EBC5
:104AE00001116423B1FBF3F101F00F0111442268BD
:104AF000916070BD0038014077B581B0044615461D
:104B00000298A062A58500202064222084F83E003F
:104B10001C48A16B88621C48A16BC8621B48A16B32
:104B200008630020A16B486302AE32682368191D38
:104B30002B46A06BFDF77CFE00BF00200090206894
:104B40000068009020684068009000BF00BF00BF70
:104B5000002084F83C0000BF2068C06840F48070EA
:104B60002168C8602068406940F001002168486100
:104B70002068406940F0400021684861002004B08E
:104B800070BD0000E147000849480008914700084F
:104B9000014691F83D00212828D18868B0F5805F52
:104BA0000BD1086948B90A6A1088C0F308000B687D
:104BB0005860086A801C086205E00B6A581C08628D
:104BC00018780B685860C88C401E80B2C88458B9E9
:104BD0000868C06820F080000B68D8600868C0686A
:104BE00040F040000B68D860002070470220FCE7CE
:104BF0002DE9F04104460D4617469846069E21E0F1
:104C0000701CF8B12EB1FDF7F7FFA0EB0800B04221
:104C100018D92068C06820F4D0702168C860206866
:104C2000406920F0010021684861202084F83D009F
:104C300084F83E0000BF002084F83C0000BF032041
:104C4000BDE8F081206800682840A84201D1012019
:104C500000E00020B842D3D00020F1E708B51948A1
:104C600000680068C0F3001038B300BF0020009057
:104C7000144800680068009012480068406800907E
:104C800000BF00BF0F48FEF7BDFE0F480068406838
:104C9000C0F1FD000D4909684969C1F800010C48DF
:104CA000006818B10A48006801F0ACF807480068CD
:104CB000FD2241690348FFF76FF90248FEF7D6FE6F
:104CC00008BD00000C060020940600208C00002087
:104CD0001800002000BFFEE710B5074807498866A6
:104CE000074848660748C86607480867802207499A
:104CF000024802F063FC10BD314D0008400700205F
:104D0000114D0008F182000809830008B407002053
:104D100070B505460C460123224629460348FFF795
:104D2000CDF800B10024204670BD0000C805002069
:104D300070B505460C464FF6FF73224629460348D8
:104D4000FFF74DF900B10024204670BDC8050020D2
:104D5000490050EAC12018BF04204A0D18BF40F096
:104D6000010040F2FF72B2EB515F08BF40F0020059
:104D7000012808BF0520704702480068C0F30220E0
:104D8000704700000CED00E010B5002804DB0A07B6
:104D9000130E054A135406E00A07140E034A00F0E6
:104DA0000F031B1FD45410BD00E400E018ED00E019
:104DB00030380A2801D2012070470020704700BF18
:104DC000EFF3058008B1012070470020FCE70000E8
:104DD000FDF724FFFFF73AFCFFF7D2FAFFF73EFAA0
:104DE000FFF79EFBFFF700FAFFF75AFBFFF77CFB8C
:104DF000FFF772FFFFF7C2FB102205490548FDF7D8
:104E0000D1FAFFF755FA00F0C0FF00BFFEE700003F
:104E1000BC040020FC04002001460020842901D0AD
:104E2000CA1C1044704710B504460020C4F80001A5
:104E3000FD212046FBF7B7FB10BD000070B5024610
:104E40000C46FF25FF2309E012F8010B80EA03015D
:104E50000648405C80EA05030548455C201EA4F135
:104E60000104F1D143EA052070BD0000C8A5000887
:104E7000C8A600082DE9FF410446582001F0FCFDBA
:104E800020602068002864D003982168C8613248F7
:104E9000216808623148216848629DF80400216851
:104EA0000870029805F0A7F807463A460B4600201E
:104EB0002B4904F0EBFE054605F040F82168C86078
:104EC000029805F098F807463A460B460020254917
:104ED00004F0DCFE054605F031F82168886000200A
:104EE0002168087420482168886220482168C862C7
:104EF0001F48216808631F48216848631E482168CD
:104F000088631E482168C8631D48216808641D48DD
:104F1000216848641C48216888641C482168C8646A
:104F20001B48216808651B4821684865216801F114
:104F3000180000F063F848B1216801F1140000F096
:104F40002BF818B1012004B0BDE8F081206803F00F
:104F5000A7FA0020F7E7000007520008CF52000828
:104F6000389C6C4176B08041F95F00082B600008E6
:104F70000D600008C5580008D15200081B550008F4
:104F80002D5600082B57000829580008875800089C
:104F9000E35300087F54000810B504464FF48270B4
:104FA00001F06AFD206024B9204603F079FA002060
:104FB00010BD2068FFF737FF0120F9E72DE9F04128
:104FC00004460E4600270020306004F5017003C837
:104FD000884210D20C2001F04FFD054655B100204B
:104FE00028606860A8603560D4F80402401CC4F8EA
:104FF0000402012700BF3846BDE8F0812DE9F843DF
:10500000804600274FF41B7001F036FD0446002C4B
:1050100065D0364804F50174A060354820613548F4
:10502000A061354820623548E06035486061354808
:10503000E061354860623548A0623548E062354835
:105040002063354860633548A0633548E0633548E0
:105050002064354860643548A0643548E0643548CC
:105060002065354860653548A0653548E0653548B8
:10507000206635486066002020604FF480706060D4
:10508000A4F5017421462046FFF798FF074607B9AB
:1050900026E0D4F8009000251DE0002618E06946BF
:1050A0002046FFF78BFF074607B919E0274850F85D
:1050B0002500304400990860201D00EBC5100099C0
:1050C00040F826100098C9F80800DDF80090761C1A
:1050D000202EE4D36D1C042DDFD3012700BF00BFB9
:1050E000C8F800403846BDE8F8830000D9580008E9
:1050F00039590008AB5A0008D55A0008255B00084A
:10510000B15B0008FF5C0008435D00086B590008B4
:105110008F590008E15B0008F75B0008075A000898
:105120002F5A00086B5C0008855C00086F5A000865
:10513000895A0008C35C0008DD5C0008CB590008F0
:10514000E55900082F5C0008495C00087C0000203D
:1051500070B503460024002016E0184D55F8205085
:105160008D4210D8154D55F8205020358D420AD962
:105170001D1D05EBC015114E56F820608E1B55F80D
:10518000265015600124401C0428E6D39CB91D68F4
:10519000A8680CE005688D4202D11060012408E087
:1051A00005688D4202D90025156002E0806800285C
:1051B000F0D100BF00BF204670BD00007C00002081
:1051C00070B50446002023689A6801E013469A6887
:1051D00022B115680E683668B542F7D332B90D684A
:1051E0009D6000250E68B56001200BE015680E6813
:1051F0003668B54201D1002004E00D68AA600D6850
:105200009D60012070BD70B504466069D0F80061F2
:105210006569032E04D202212046626A904770BD60
:10522000B11E2846FFF70AFE711E695CB21EAA5C19
:1052300061F31F22904205D000BF03212046626A1D
:105240009047ECE728782178884204D00421204652
:10525000626A9047E3E76878052820D008DC0128D7
:105260000DD002280FD0032811D0042827D112E036
:10527000062818D00F281AD0102820D11BE020466D
:10528000A16B884720E02046E16B88471CE0204660
:10529000216C884718E02046616C884714E020465E
:1052A000A16C884710E02046E16C88470CE020465E
:1052B000216D884708E02046616D884704E005219C
:1052C0002046626A904700BF00BF00BFA7E7704753
:1052D0002DE9F84F8146D9F81480D9F818B098F81C
:1052E000020098F8031060F31F21009198F8040061
:1052F00098F8051060F31F210C460026A00001F06D
:10530000BBFB8246A1005046FBF74DF953462246AF
:10531000DBF830C258460099E0472246E31704EB19
:105320005373DB10A4EBC303002B06DD2146E31708
:1053300004EB5373DB105B1C04E02046C31700EB47
:105340005373DB10DEB2701D01F096FB0546711D34
:105350002846FBF706F998F80000287098F8010035
:105360006870AE70002016E000210DE0C21CAA5C3F
:1053700001EBC0031AF8233003F001038B401A43FA
:10538000D3B2C21CAB54491C082903D201EBC002A2
:10539000A242EBD3401CB042E6D3F11C2846FFF7F3
:1053A0004DFD07463846F91707EB11610912A7EBC7
:1053B0000121CAB2F11C6A54F91707EB1161C1F35C
:1053C0000722311D6A54721D29464846D9F83430E7
:1053D00098475046FAF79AFF2846FAF797FFBDE834
:1053E000F88F2DE9F05F8046D8F81460D8F818904F
:1053F000B078F17860F31F218A463079717960F3D3
:105400001F218B46002710E0072000EBD700305CFF
:1054100007F0070C40FA0CF000F001020AEB07015C
:105420004846D9F8343298477F1C5F45ECD30820B2
:1054300001F022FB05460020286068603068286083
:10544000B088A88006212846FFF7F8FC04462046CD
:10545000E11704EB11610912A4EB0121A971E11715
:1054600004EB1161090AE971082229464046D8F87F
:10547000343098472846FAF749FFBDE8F09F2DE9F8
:10548000F05F8046D8F81450D8F81890A878E978DA
:1054900060F31F218A462879697960F31F218B46C2
:1054A000002710E07800C01D15F800C07800083013
:1054B000285C6CF31F2002460AEB07014846D9F826
:1054C000643298477F1C5F45ECD3082001F0D4FA82
:1054D000064600203060706028683060A888B08080
:1054E00006213046FFF7AAFC04462046E11704EBEC
:1054F00011610912A4EB0121B171E11704EB1161F3
:10550000090AF171082231464046D8F834309847EC
:105510003046FAF7FBFEBDE8F09F2DE9F84F8146D3
:10552000D9F81480D9F818B098F8020098F8031048
:1055300060F31F21009198F8040098F8051060F3BB
:105540001F210C460026A00001F096FA8246A10019
:105550005046FBF728F853462246DBF840C258462F
:105560000099E0472246E31704EB5373DB10A4EBEA
:10557000C303002B06DD2146E31704EB5373DB1056
:105580005B1C04E02046C31700EB5373DB10DEB254
:10559000701D01F071FA0546711D2846FAF7E1FF0A
:1055A00098F80000287098F801006870AE7000202C
:1055B00016E000210DE0C21CAA5C01EBC0031AF842
:1055C000233003F001038B401A43D3B2C21CAB5407
:1055D000491C082903D201EBC002A242EBD3401CB4
:1055E000B042E6D3F11C2846FFF728FC07463846B0
:1055F000F91707EB11610912A7EB0121CAB2F11CDF
:105600006A54F91707EB1161C1F30722311D6A547F
:10561000721D29464846D9F8343098475046FAF763
:1056200075FE2846FAF772FEBDE8F88F2DE9F05FA7
:105630008046D8F81470D8F818A0B878F97860F3D4
:105640001F218B463879797960F31F210C46600061
:1056500001F012FA814661004846FAF782FF4B4694
:10566000224659465046DAF860C2E047012C03D979
:105670002146484600F047FA052101EB440001F0BD
:10568000FBF90546052000EB44012846FAF769FFBF
:1056900038782870787868706006000EA87000204E
:1056A00016E039F81010CA1701EB1262C2F3072393
:1056B0004200D21CAB5439F81010CA1701EB126229
:1056C0001212A1EB0222D3B24200121DAB54401CB5
:1056D000A042E6D3032000EB44012846FFF7AEFBCF
:1056E00006463046F11706EB11610912A6EB0121BF
:1056F000032202EB4402A954F11706EB1161C1F336
:105700000721042202EB4402A954052000EB4402C5
:1057100029464046D8F8343098474846FAF7F6FD0F
:105720002846FAF7F3FDBDE8F09F2DE9F05F8046CB
:10573000D8F81470D8F818A0B878F97860F31F2159
:105740008B463879797960F31F210C46600001F0AF
:1057500093F9814661004846FAF703FF4B4622461B
:1057600059465046DAF850C2E047012C03D9214689
:10577000484600F0C8F9052101EB440001F07CF92E
:105780000546052000EB44012846FAF7EAFE387882
:105790002870787868706006000EA870002016E007
:1057A00039F81010CA1701EB1262C2F30723420046
:1057B000D21CAB5439F81010CA1701EB1262121246
:1057C000A1EB0222D3B24200121DAB54401CA042F6
:1057D000E6D3032000EB44012846FFF72FFB0646E3
:1057E0003046F11706EB11610912A6EB01210322E5
:1057F00002EB4402A954F11706EB1161C1F3072132
:10580000042202EB4402A954052000EB440229467D
:105810004046D8F8343098474846FAF777FD28468E
:10582000FAF774FDBDE8F09F2DE9FF470446606973
:10583000D0F800616569002000900190029003900B
:10584000324629460DF10300FAF70CFEA769A87845
:10585000E97860F31F2188462879697960F31F2170
:10586000002901DD012000E0002081464A46414632
:105870003846D7F834329847F21C69462046636BA5
:105880009847BDE8FF872DE9F04704466069D0F8E6
:1058900000716569A669A878E97860F31F218846D8
:1058A0002879697960F31F2189464A464146304686
:1058B000D6F8643298473A4629462046636B9847A3
:1058C000BDE8F08770B504460D46164632462946B7
:1058D000204600F07DFB70BD2DE9FE4F82460C4650
:1058E00091464FF0000B204604F085FB074600224E
:1058F000104B04F0CBF9054604F050FB029004F085
:105900000F0001906A4650460299FFF721FC83463A
:10591000BBF1010F08D1009840680199C84000F020
:105920000100C9F8000002E00020C9F800000120D1
:10593000BDE8FE8F000030402DE9F04705460E46D9
:10594000174698464FF00009002409E0424608F146
:10595000040831192846D5F80C3298478146641C52
:10596000BC42F3D34846BDE8F087F8B504460D467F
:1059700016466A46691C2046D4F81C3298470746EA
:10598000BDF8000000F0010030603846F8BD2DE998
:10599000F84306460F4690461C464FF00009002586
:1059A0000EE07819411C6A463046D6F81C329847FA
:1059B00040EA0909BDF8000000F0010001C46D1CB7
:1059C0004545EED34846BDE8F88370B504460D461C
:1059D0001646324649F6414029182046D4F81C3272
:1059E000984770BD2DE9F04104460D4616461F4606
:1059F0003B46324649F6414029182046D4F824C295
:105A0000E047BDE8F081F8B504460D4616466A4603
:105A100042F2117029182046D4F81C3298470746E4
:105A2000BDF8000000F0010030603846F8BD2DE9F7
:105A3000F84306460F4690461C464FF000090025E5
:105A400010E0781942F2117281186A463046D6F891
:105A50001C32984740EA0909BDF8000000F0010037
:105A600001C46D1C4545ECD34846BDE8F88370B5CC
:105A700004460D461646324647F231502918204654
:105A8000D4F81C32984770BD2DE9F04104460D460C
:105A900016461F463B46324647F2315029182046EB
:105AA000D4F824C2E047BDE8F081F8B505460E46BB
:105AB000144600276A4631462846FFF749FB074649
:105AC000012F03D100988088208001E000202080F1
:105AD0000120F8BD2DE9F04705460E4617469846C9
