:020000040800F2
:10000000104300200D030008B94B00081703000837
:10001000994B0008DD200008B952000800000000DC
:100020000000000000000000000000007502000851
:100030005322000800000000B9020008094D000822
:1000400027030008270300082703000827030008E8
:1000500027030008270300082703000827030008D8
:1000600027030008270300082703000805220008CB
:100070002703000827030008112200081D2200089A
:1000800027030008270300082703000827030008A8
:10009000270300082703000827030008552200084B
:1000A00027030008B14D00082703000827030008B4
:1000B00027030008BD4D0008C94D000827030008AC
:1000C0002703000827030008270300082703000868
:1000D00027030008595200082703000827030008D7
:1000E00027030008270300082703000800F002F890
:1000F00000F0B0F80AA090E8000C82448344AAF112
:100100000107DA4501D100F0A5F8AFF2090EBAE80F
:100110000F0013F0010F18BFFB1A43F0010318473B
:1001200090A40000B0A400000A444FF0000C10F8A6
:10013000013B13F0070408BF10F8014B1D1108BF65
:1001400010F8015B641E05D010F8016B641E01F805
:10015000016BF9D113F0080F1EBF10F8014BAD1C55
:100160000C1B09D16D1E58BF01F801CBFAD505E073
:1001700014F8016B01F8016B6D1EF9D59142D6D3CD
:10018000704700000023002400250026103A28BFF5
:1001900078C1FBD8520728BF30C148BF0B607047F9
:1001A0006E2900F04B83702900F09584662909F0D0
:1001B0002982652909F02682672909F023826129AD
:1001C00009F0228203681B0A28BF41F080016929D7
:1001D00000F0F882642900F0F582752900F0F282BF
:1001E0006F2900F02284782900F06184E92900F069
:1001F000BD83E42900F0BA83F52900F0B783EF2925
:1002000000F01F84F82900F060840368DB0928BF30
:1002100041F08001632901F06781732901F06C814D
:10022000E32901F07781F32901F07C8100207047F8
:100230001FB501F0C9F904000020002108F0CEFD2F
:10024000401C60600020002108F0B2FDE0601FBD8E
:1002500010B510BD01F08AF91146FFF7E9FF05F06E
:10026000CDF801F067FA03B4FFF7F2FF03BC01F029
:100270006BFA0000224B19680868B0E8F00F80F3B1
:100280000988BFF36F8F4FF0000080F311884EF0A4
:100290000D0E70470000000006480068006880F3FB
:1002A000088862B661B6BFF34F8FBFF36F8F00DF70
:1002B00000BF00BF08ED00E0EFF30980BFF36F8FD0
:1002C0000F4B1A6820E9F00F106008B54FF050008E
:1002D00080F31188BFF34F8FBFF36F8F08F024F8BE
:1002E0004FF0000080F31188BDE8084019680868E5
:1002F000B0E8F00F80F30988BFF36F8F704700BF3D
:1003000088030020EFF3058070470000094880470C
:1003100009480047FEE7FEE7FEE7FEE7FEE7FEE7E7
:10032000FEE7FEE7FEE7FEE704480549054A064BFF
:1003300070470000AD4D0008ED00000810390020A6
:1003400010430020103B0020103B002070B50446F5
:10035000051F00F0D1F90068002C14BF446870BD7F
:10036000002C18BFAC423CBF20466468F8D301683B
:100370000A18AA4218BF456003D12A6805461144ED
:10038000016028684119A1421CBF6C6070BD6168A2
:10039000696021680844286070BD00007CB51D4676
:1003A00016460C00009001D02044401E074B7B44B1
:1003B0002A4669460190304600F059FA05461CB1BC
:1003C0000020694600F066FA28467CBDED04000076
:1003D00030B505460B462A4613F8014B12F8010BBF
:1003E00008B1A042F8D01CB1002802D06D1CF1E782
:1003F000284630BD10B5431C02E010F8011B71B156
:100400008107FAD14FF0013202C88C1A8C4314EAEA
:10041000C211F9D0C01A0A0603D0C01E10BDC01AFE
:1004200010BD0A0401D0801E10BD0902FCD0401E80
:1004300010BD40EA010370B59B072ED14FF0013685
:10044000042A2AD308C810C99D1B9D43121F15EA10
:10045000C61517D0D8B2E1B2401A50EA056110D1E2
:1004600098B2A1B2401A50EA05410AD123F07F4068
:1004700024F07F41401A50EA052102D1180EA0EB6A
:10048000146070BDA342DBD018BA21BA884201D9EA
:10049000012070BD4FF0FF3070BD0AB9002070BD63
:1004A00010F8013B11F8014B63B1A3420AD1521E6F
:1004B00008D010F8013B11F8014B1BB1A34201D148
:1004C000521EEDD1181B70BD421E12F8013F002BC9
:1004D000FBD111F8013B002B02F8013BF9D1704729
:1004E000032A40F2308010F0030C00F0158011F860
:1004F000013BBCF1020F624498BF11F801CB00F838
:10050000013B38BF11F8013BA2F1040298BF00F88B
:1005100001CB38BF00F8013B11F0030300F0258048
:10052000083AC0F0088051F8043B083A51F804CB6F
:10053000A0E80810F5E7121D5CBF51F8043B40F835
:10054000043BAFF30080D20724BF11F8013B11F840
:1005500001CB48BF11F8012B24BF00F8013B00F884
:1005600001CB48BF00F8012B704710B5203AC0F00E
:100570000B80B1E81850203AA0E81850B1E81850A4
:10058000A0E81850BFF4F5AF5FEA027C24BFB1E8E1
:100590001850A0E8185044BF18C918C0BDE8104052
:1005A0005FEA827C24BF51F8043B40F8043B08BF5B
:1005B0007047D20728BF31F8023B48BF11F8012B22
:1005C00028BF20F8023B48BF00F8012B704702F01B
:1005D000FF0343EA032242EA024200F002B84FF06E
:1005E00000020429C0F0128010F0030C00F01B8000
:1005F000CCF1040CBCF1020F18BF00F8012BA8BF0E
:1006000020F8022BA1EB0C0100F00DB85FEAC17CD1
:1006100024BF00F8012B00F8012B48BF00F8012B84
:1006200070474FF0000200B51346944696462039B5
:1006300022BFA0E80C50A0E80C50B1F12001BFF49B
:10064000F7AF090728BFA0E80C5048BF0CC05DF801
:1006500004EB890028BF40F8042B08BF704748BF4F
:1006600020F8022B11F0804F18BF00F8012B7047C3
:100670004FF0013C50F8042B51F8043B9A4221D131
:10068000A2EB0C03934313EACC1317D150F8042BBD
:1006900051F8043B9A4215D1A2EB0C03934313EAA1
:1006A000CC130BD150F8042B51F8043B9A4209D1DA
:1006B000A2EB0C03934313EACC13DBD04FF0000002
:1006C000704700BFD01A01BAB1FA81F101F01801E8
:1006D00022FA01F0CB40C1F12001DBB2C0B2C01A56
:1006E0002CFA01F3D11A914311EAC311E6D17047F4
:1006F000704770477047000000487047B8380020C6
:1007000070B5044685690068C10601D5302600E051
:100710002026C00707D070BDD4E90121304690479C
:10072000206A401C20626D1EF6D570BD70B504466F
:1007300085690078C00707D170BDD4E90121202068
:100740009047206A401C20626D1EF6D570BD096876
:100750004A0501D540B27047C905FCD500B27047C3
:1007600009684A0501D5C0B27047C905FCD580B2F9
:10077000704770B50C460546012A05D028788006DA
:1007800000D5EA69002302E0012305E05B1C9342E7
:1007900002D2E05C0028F9D1A869E618C01AA86165
:1007A000286A184428622846FFF7AAFF04E0D5E922
:1007B000012114F8010B9047B442F8D32846FFF703
:1007C000B5FF70BD2DE9F04106460024106875297B
:1007D000314616A510D0FFF7BAFF002802DA4042D2
:1007E00013A507E031688A0701D512A502E0490781
:1007F00004D511A5012401E0FFF7B2FF00210A2270
:1008000006F1240709E0B0FBF2FCB0FBF2F302FBB7
:100810001C00303078541846491C0028F3D1234678
:100820002A463046BDE8F04100F06DBA00000000F5
:100830002D0000002B00000020000000116802685D
:10084000006A530501D508700AE0D30501D5088078
:1008500006E0130603D5C217C1E9000200E00860F4
:100860000120704701694A1C02610878704700B591
:100870008FB0CDE901310021059105497944CDE9D9
:1008800003101146684600F031F90FB000BD0000BA
:10089000E5FFFFFF0A6802F8010B0A607047D1E923
:1008A00000239A4202D2531C0B6010707047000064
:1008B0002DE9FF5F15468A460446DFF8AC80F84410
:1008C0000027D8E900103E46CDE9001010E03AF8C4
:1008D00016106A4602A800F029FE411C07D02178B4
:1008E000890603D5E269391891420DD80744761C70
:1008F0002078800602D5E069B84205DDAE42E6DB2D
:100900003AF816000028E2D1A069C01BA061204679
:10091000FFF7F6FED8E90010CDE90010002017E03F
:100920003AF818106A4602A800F000FEB0F1FF3F46
:1009300081460BD000250DF1080B05E0D4E901211B
:100940001BF8050090476D1C4D45F7D308F10100D9
:10095000B0428046E4DB206A384420622046FFF73C
:10096000E5FEBDE8FF9F0000F29100002DE9F04197
:100970008046D21D22F007020025D2E90002F529A7
:1009800015A614D0011E72F1000106DA0023D0EB87
:10099000030063EB020211A608E0D8F800108B07F1
:1009A00001D50FA602E0490701D50EA60125114683
:1009B000002408F1240704E000F060F930323A55D1
:1009C000641C50EA0102F7D12B46324621464046CC
:1009D000BDE8F04100F097B9000000002D000000D4
:1009E0002B0000002000000030B4002100F124049E
:1009F00008E002F00705D208303542EA4372DB080E
:100A00006554491C52EA0305F3D10468002310A27F
:100A1000250707D5A40600D421B1C46901230DA27E
:100A2000641EC46130BC00F06EB910B504462146A6
:100A30001068FFF795FE02462046BDE810400023EF
:100A4000D2E7D21D22F00701D1E90023CCE7000054
:100A50000000000030000000F0B40D4601880905D8
:100A600002D5214C7C4402E01F4C7C440E34002112
:100A700000F1240608E002F00F071209E75D42EAE0
:100A800003721B097754491C52EA0307F3D1027819
:100A90000023120704D5702D06D009B102231134AA
:100AA0002246F0BC00F02FB901231034F8E770B5EE
:100AB00004460D4621461068FFF752FE02462946BD
:100AC0002046BDE870400023C6E7D21D22F0070390
:100AD000D3E90023C0E70368126843F020030360F2
:100AE0000823C3610023B7E7549000002DE9F05FAD
:100AF000894604464FF0000ADFF874B1FB44C0F8A1
:100B000020A02046E1688847002874D0252806D018
:100B1000D4E901219047206A401C2062F1E70026B9
:100B20005F462046E16888472028054607DB312DCF
:100B300005D2781910F8200C08B10643F1E7B00788
:100B400001D526F00406C4F81CA00027C4F818A09C
:100B50002A2D09D0284604F043FC38B304EB87085B
:100B6000303DC8F8185019E059F8041B204604EB32
:100B700087029161E1688847012F054618D1E06935
:100B8000002820DA26F020061DE0D8F8180000EB37
:100B9000800005EB40003038C8F818002046E168B6
:100BA0008847054604F01CFC0028EED1012F0AD02E
:100BB0002E2D08D12046E16888477F1C0546022F6C
:100BC00046F02006C4DBA069002803DA404246F064
:100BD0000106A061F00701D026F010066C2D0BD0A5
:100BE000682D09D04C2D39D06A2D35D0742D35D0D3
:100BF0007A2D33D016E038E0E1682F46204688474A
:100C0000B842054609D16C2F26D04FF48060E168C8
:100C1000064320468847054604E06C2F1AD04FF45F
:100C2000807006430DB3A5F14100192802D8203584
:100C300046F400664A462946204626604E46FFF79F
:100C4000AFFA80B101280BD0F61D26F0070000F1A5
:100C5000080956E74020E4E78020D8E70020D6E7DF
:100C600006F104094DE7284652E7206ABDE8F09FE7
:100C7000E48F000000487047B038002030B5B0F174
:100C80000A024FEA900E71F100034EEA817EB0EB4A
:100C90000E0061EB91014FEA101E4EEA017E10EB4F
:100CA0000E0041EB11114FEA102E4EEA016E10EBCF
:100CB0000E0041EB11214FEA104E4EEA014E10EBAF
:100CC0000E0041EB1141401841F100014FEAD00004
:100CD00040EA41704FEAD10110EB80054FEA8104F0
:100CE00044EA907444EB01046D1944EB0404521B74
:100CF000A3414FF0000348BF0A3200D530BD401C6D
:100D000041F1000130BD2DE9F0470D46994692466C
:100D1000044600F124080168880604D5E06921F042
:100D20001001216000E00120A84201DD471B00E026
:100D30000027A1697A1902EB0900081AA06120783E
:100D4000C00602D42046FFF7DBFC002608E0D4E909
:100D500001211AF806009047206A401C761C206288
:100D60004E45F4DB2078C0060AD52046FFF7C8FCC4
:100D700006E0D4E9012130209047206A401C20621F
:100D8000381EA7F10107F4DC07E0D4E9012118F8C7
:100D900005009047206A401C2062281EA5F101052D
:100DA000F3DC2046FFF7C2FC2078000602D50220C3
:100DB000BDE8F0870120FBE770472DE9FF4F0C46A7
:100DC0001E464FF0FF378BB0D2E90001DDF860809E
:100DD0000A908A46C1F30A5505B93D4600210846E6
:100DE0004FF00000BAF1000F00F4400005DA00EB0C
:100DF00080004FF4400101EA50004FEA9059B9F1E8
:100E0000010F00DDB9460A9850EA4A000ED044F6B8
:100E10001050A5F2FF3545432F14B8F1000F1ED036
:100E20007542291E1EDDC9F100021CE0B8F1010F58
:100E30004FF0000001D0302103E0F24305E02154DF
:100E4000401CB042FBDB30460022002121540B99AC
:100E5000C1F80880C1E900200FB0BDE8F08FBD1BCC
:100E60006D1CDEE74A4600DA694206A800F0F0FB96
:100E700006AB93E8070003AB83E8070050460A99E6
:100E800000F069FC8DE80700A0F500501F380090C5
:100E90000398002D0ADD42F21F014A460844002350
:100EA00003A90390684600F0D2FE09E0A0F50050C7
:100EB0004A461F38002303A90390684600F0DCFE71
:100EC0008DE807000004000C03D04FF0FF3041080C
:100ED00000E01046B8F1000F03D000220092154642
:100EE0001EE0751E05D4FFF7C9FE303262556D1E37
:100EF000F9D5B3460122084302D000227F1C04E04A
:100F00002078302801D100227F1E002A099784D042
:100F10001DE0112D07DAFFF7B1FE303262556D1C6E
:100F200050EA0102F5D1084302D00098C8B10EE0A2
:100F30000021681E05E0235C625C63542254401E5D
:100F4000491C8142F7DBAB46A81B401E09900020DC
:100F500004F80B000B98099AC0F80880C0E9002B30
:100F60007AE711264FF0000857E72DE9F04F884641
:100F70000446D21D22F0070191B0D1E90001CDE96C
:100F80000A0104F009FA02460B98C00F01D02D2087
:100F900007E02068810701D52B2002E0202101EA2B
:100FA000C000032A099001D0072A05DB0346414609
:100FB000204600F00DFB0BE12078800601D5E069AA
:100FC00000E00620B8F1650F814606D0B8F1660F43
:100FD00018D0B8F1670F70D131E00020B9F1110FCE
:100FE000009001DB112301E009F101030AAA01A924
:100FF0000CA8FFF7E2FEDDE90C70002609F10105FF
:10100000834647E001204B4600904FF000470AAA74
:1010100001A90CA8FFF7D1FEDDE90DB00C995D46E2
:10102000002610B909F101000D18B9EB050003D431
:10103000C0F1FF3609F10105A5EB09002BE0B9F17C
:10104000010F01DA4FF001090020B9F1110F0090F2
:10105000484601DD112300E003460AAA01A90CA8B5
:10106000FFF7ABFEDDE90C704D4600268346207885
:1010700000070AD4AB4500DA5D4601A8012D04DD66
:10108000411911F8011C302907D04F4502DA17F138
:10109000040F04DA012082460FE06D1EEEE7002FF8
:1010A00002DCED1B3E4403E0781CA84200DD7D1C01
:1010B000B81B00F1010A4FF000472078000703D465
:1010C000AA4501DB4FF0FF3A0021B7F1004F0DF1C7
:1010D00043088DF8431024D002202B23002F01DA7F
:1010E0007F422D230A21021EA0F1010000DC5FB126
:1010F00097FBF1FC97FBF1F201FB1C7C17460CF10E
:10110000300C08F801CDEEE7A8F10100037021884A
:10111000090501D5452100E06521A0F1010800F88D
:10112000011C09980FA9A1EB0807FF1D00B10120C0
:10113000411901EBEA70A1693844081A401EA06108
:101140002078C00602D42046FFF7DAFA099828B1C1
:10115000D4E901219047206A401C20622078C00613
:1011600022D52046FFF7CCFA1EE0002E04DBB34563
:1011700002DD01A8805D00E03020D4E90121904724
:10118000206A401C2062761CAAF101005FEA000A76
:101190000AD100F019FAC0680168405CD4E9012165
:1011A0009047206A401C2062281EA5F10105DCDC66
:1011B00007E0D4E9012118F8010B9047206A401C90
:1011C0002062381EA7F10107F3DC2046FFF7AEFAD4
:1011D000032011B041E600002DE9F04F04460D4612
:1011E000D21D22F0070089B0D0E900974846394661
:1011F00004F0D2F80246F80F01D02D2307E0206852
:10120000810701D52B2302E0202101EAC0038DF8DC
:1012100020300BB1012000E00020032A824601D0DB
:10122000072A04DB2946204600F0D2F93FE1207866
:10123000800601D40D2500E0E569C7F30A560D2D9F
:1012400049DA00214FEA175B08464FF00000002FF3
:1012500000F4400007DA00EB80004FF4400100EB9F
:10126000D07001EA60008115012901DD4FF0FF31E6
:1012700000224FEA850CBCF1180F06D31346ACF1DF
:1012800018004FF08052C24003E04FF4801323FA5D
:101290000CF30CF10C0CBCF1200F04D3ACF1200CBE
:1012A00009FA0CF001E007FA0CF000294FF00048B1
:1012B00001DD18B90FE00ED140450CD319EB02093E
:1012C0005F4121B9404502D19F4329EA0209BBEBA6
:1012D000175F00D0761C2088000502D57B48784433
:1012E00002E07A487844193808AA302302F80A3014
:1012F000037C0AF10101002E0AF1020A53546A46E6
:1013000002DC4FF0300101E04FF031014FF00108F5
:101310008DF8001002D0A6F2FF3603E059EA47012B
:1013200000D06B4E002D02DC2178090704D54FF068
:1013300002082E218DF80110C44600210BE0C7F3EE
:1013400003433F01C35C491C6D1E02F808300529A8
:1013500008F1010801DA002DF1DC00210CE000EBBE
:101360001973491C1B786D1E082902F808304FEAD2
:10137000091908F1010801DA002DF0DC21688B065B
:1013800002D516E0A8F10108E04505DD02EB0803EF
:1013900013F8013C302BF5D0B8F1000F09DD02EB5A
:1013A000080313F8013C2E2B03D1090701D4A8F13F
:1013B0000108002D05DD3E2102F808106D1E08F120
:1013C0000108407C002E02F8080008F1010804DA48
:1013D0002D20764202F8080002E02B2002F80800D7
:1013E0000A214FF47A70864208F101080BDB96FB64
:1013F000F0F3303302F8083096FBF0F308F10108FF
:1014000000FB136601E0642E0CDB642096FBF0F316
:10141000303302F8083096FBF0F308F1010800FBC6
:10142000136601E00A2E06DB96FBF1F0303002F87D
:10143000080008F1010896FBF1F001FB1060303064
:1014400002F80800A16908F1010808EB050202EBA7
:101450000A00081AA0612078C00602D42046FFF7CF
:101460004FF9216A08AE01EB0A00206204E0D4E9DA
:10147000012116F8010B9047BAF1010AF7D2207842
:10148000C00602D52046FFF73BF96E4609E016F884
:10149000010B3E280FD0D4E901219047206A401C5F
:1014A0002062B8F10108F2D22046FFF73FF909B0F7
:1014B0000320BDE8F08F206A2844206203E0D4E9CD
:1014C0000121302090476D1EEBD3F8E726880000FD
:1014D00002FCFFFF10B5436913B1AFF3008001E0D8
:1014E000FFF747F9012010BD127800F124010A70BE
:1014F00000224A700122EDE711684FF0FF32E9E760
:1015000010B5436913B1AFF3008001E0FFF7D0F9E4
:10151000012010BD128800F1240182840022C284BF
:101520000122EDE711684FF0FF32E9E770B516468A
:101530000C46054600F040F8036893F801010128C5
:1015400006D0FF2C0FD8185D68B101202C7070BD3B
:10155000D3F807013246214603F207130344284615
:10156000BDE8704018474FF0FF3070BD7546FFF77B
:1015700081FBAE4605006946534620F007008546CC
:1015800018B020B5FEF7D0FEBDE820404FF00006B1
:101590004FF000074FF000084FF0000B21F007015B
:1015A000AC46ACE8C009ACE8C009ACE8C009ACE89E
:1015B000C0098D467047000010B500F005F8001D09
:1015C00010BD00BF1978000000487047D0380020D7
:1015D0002DE9F0411F46044603260168072A01F45D
:1015E000006004DB08B116A505E016A503E008B10C
:1015F00015A500E015A521F010002060A069C01E0F
:10160000A0610FB1401EA0612046FFF779F84FB1ED
:10161000D4E9012138469047206A401C2062C01C52
:10162000206206E0206AFAE7D4E9012115F8010BEF
:101630009047761EF8D22046FFF778F8BDE8F08193
:101640004E414E006E616E00494E4600696E660066
:101650002DE9F047814616468AB0354878440DC8D2
:101660008DE80D0032487844801C03AC0DC884E836
:101670000D0041F69B300844372190FBF1F290FBBE
:10168000F1F5A5F1800501FB12041B3C02D5644273
:10169000012000E00020DFF898A080460027FA44EF
:1016A000AAF1BE0A0EE0E0070AD03246684607EB10
:1016B000470101230AEB810100F0DEFA8DE8070003
:1016C00064107F1C002CEED1194F7F44AE3F19E00F
:1016D000E80715D007EB04100DF1180A90E80E008A
:1016E0008AE80E00C068F04201D19819089032468D
:1016F000012306A903A800F0BFFA03AB83E80700A3
:101700006D10641C002DE3D14FF001033246694691
:10171000B8F1000F03A802D000F099FA01E000F040
:10172000ABFAC9E90001C9F808200AB0BDE8F087A2
:101730003885000010B50446AFF300802046BDE8B0
:101740001040FEF790BD000001491820ABBEFEE737
:101750002600020070475FEA400C08BF91F0000FBE
:101760004FEA8C234FEAC12243EA51514FEA1C5001
:1017700018BF00F5F0404FEA300018BF41F00041BB
:101780005FEA6C5C00F02980BCF1FF3F08BF40F0CD
:1017900080407047130C06BF12044FF0100C4FF03E
:1017A000000C130E04BF12020CF1080C130F04BF3F
:1017B00012010CF1040C930F04BF92000CF1020C07
:1017C000D30F04BF52000CF1010C11464FF0000280
:1017D000A0F11F00A0EB0C00704711F0004F08BFF4
:1017E000704731F000413FF4D5AF0B0C06BF090440
:1017F0004FF0100C4FF0000C0B0E04BF09020CF15F
:10180000080C0B0F04BF09010CF1040C8B0F04BF73
:1018100089000CF1020CCB0F04BF49000CF1010C44
:10182000CCF12003A0EB0C0022FA03F302FA0CF235
:1018300041EA030100F10100704720F07F4C80EA8B
:10184000030023F07F47ACEB070303F57C5300F064
:10185000004003F1FF032DE980494FEA154B09B41D
:101860004FEA144325EA0B4E24EA03480FF20426FC
:1018700006EB132749083E785FEA320203FB06674E
:10188000C7F5000707FB06F64FEA54374FEAD6467E
:1018900006F1020607FB066CCCF1005C4FEA1C4720
:1018A0002CEA074C07FB06F40CFB06F504EB154687
:1018B0004FEA961634BF00204FF000404FEAD13770
:1018C00006FB07FC4FEA1C4C0CFB0BF7D21B03FB7F
:1018D0000CF761EB07010CFB0EF7B0EB074072EB66
:1018E00017420CFB08F734BFA2EB0742B2EB0742EA
:1018F00061EB17414FEA0C444FEA910706FB07FCE6
:101900004FEA1C4C0CFB0BF7B0EBC74072EB5732A5
:1019100003FB0CF734BFA2EBC742B2EBC74261EB4B
:1019200057310CFB0EF7B0EBC70072EB57720CFB94
:1019300008F734BFA2EBC702B2EBC70261EB5771E5
:10194000039F4FEA816141EA921104EBCC044FEA14
:10195000D1374FEA826206FB07FC42EA90124FEA57
:1019600080604FEA1C4C0CFB0BF7D21B03FB0CF7FF
:1019700061EB07010CFB0EF7B0EB074072EB17426F
:101980000CFB08F734BFA2EB0742B2EB074261EB56
:1019900017414FEA8C554FEA910704EB9C2406FB54
:1019A00007FC4FEA1C4C0CFB0BF7B0EBC74072EB8B
:1019B000573203FB0CF734BFA2EBC742B2EBC7426E
:1019C00061EB57310CFB0EF7B0EBC70072EB5772AF
:1019D0000CFB08F734BFA2EBC702B2EBC70261EB06
:1019E000577115EB4C254FEA816141EA92114FEA9C
:1019F00082624FEAD13742EA901206FB07FC44F1BB
:101A000000044FEA80604FEA1C4C0CFB0BF7D21B22
:101A100003FB0CF761EB07010CFB0EF7B0EB074083
:101A200072EB17420CFB08F734BFA2EB0742B2EB94
:101A3000074261EB174115EB1C154FEA813141EA72
:101A400092414FEA823242EA90424FEA80304FEAB6
:101A50000C7644F1000448EA03434EEA0B484FF089
:101A6000000EB2EB080C71EB030724BF6246394647
:101A70004EEB0E0E4FF0000B0018524149414BEB5C
:101A80000B0BB2EB080C71EB03077BF1000B24BFCF
:101A9000624639464EEB0E0E4FF0000B00185241D5
:101AA00049414BEB0B0BB2EB080C71EB03077BF1DD
:101AB000000B24BF624639464EEB0E0E51EA020778
:101AC00018BF46F0010616EB0E7655F1000254F1F0
:101AD000000103D5BDE88901BDE80088BDE88901A2
:101AE000BDE80048B619524141EB0101A3F10103E1
:101AF000704780807F7E7D7C7B7A7978777676757B
:101B00007473727171706F6E6E6D6C6C6B6A6A69F2
:101B10006868676666656464636362616160605F8C
:101B20005F5E5E5D5D5C5C5B5B5A5A595958585705
:101B3000575656555555545453535252525151506D
:101B400050504F4F4F4E4E4D4D4D4C4C4C4B4B4BC0
:101B50004A4A4A4949494848484747474746464606
:101B60004545454444444443434343424242424141
:101B70004141002B9C4630D477002BD01CB54FEA56
:101B8000370703B44FF010004FF01001BAF1000F07
:101B900006D0BCF1000FDCBF40F0080040F00801A7
:101BA0004FF000000FBCBDE810400BF1010BBBF182
:101BB000010F08BF5FEA170722BF12F1010211F1FE
:101BC00001014FF0004143F1000300F0004043EAFF
:101BD00000007047F9D35708D0E746EA064613F1EC
:101BE000400F4FEA16461FDD13F1200FDFBF1643EB
:101BF0000A46002120335B42BED0C3F1200746EAEB
:101C0000064602FA07F74FEA164646EA0706C3F108
:101C1000200722FA03F201FA07F721FA03F14FF045
:101C2000000342EA0702A7E746EA020646EA06463A
:101C30004FEA164646EA0106BCBF46EA0646360C9F
:101C40004FF000034FF000024FF0000194E72DE940
:101C5000804C9A46934670B491E8380007C831EA40
:101C6000400C48BF34EA430C03D5FFF7E6FDFFF70D
:101C700080FFF0BCBDE8008C2DE9804C9A4693466D
:101C800070B491E8380007C810F0804F08BF13F017
:101C9000804F03D100F005F8FFF76BFFF0BCBDE803
:101CA000008C20F07F4780EA030023F07F4C07EB95
:101CB0000C03A3F57C5300F00040A3F1FE0392F067
:101CC000000F00F0B38095F0000F00F077802DE951
:101CD00001494FEA11404FEA144621EA004800FB4F
:101CE00006FC24EA064708FB06F607FB08F800FB9B
:101CF00007F718EB06484CEB164C4FEA124B18EB63
:101D000007484FEA15464CEB174022EA0B4E0BFBF7
:101D100006FC25EA06470EFB06F607FB0EFE0BFB4C
:101D200007F71EEB064E4CEB164C4FF000061EEB71
:101D3000074E4CEB174B18EB0B0840F1000018EB6B
:101D40000E0B58EB000840F100008F1A4FF0000115
:101D50003CBFC943661B14BFB5EB040C00213CBF5C
:101D6000C943F61B4FEA17444EEA8E0E27EA044594
:101D70004FEA1C4704FB07622CEA074C05FB07F7F8
:101D80000CFB05F604FB0CFC16EB074642EB174276
:101D900016EB0C4642EB1C421BEB060658EB02020C
:101DA000414146EA9E0601D5BDE80189B619524176
:101DB00041EB0101A3F10103BDE801894FEA14459C
:101DC0004FEA114724EA054621EA074C05FB07F4D0
:101DD00006FB07F70CFB06F105FB0CFC11EB0741BA
:101DE00044EB17444FEA124711EB0C4144EB1C44FF
:101DF00022EA074C05FB07F206FB07F70CFB06F689
:101E000005FB0CFC16EB074642EB174216EB0C46A3
:101E100042EB1C456A1854F1000148BF7047B619DF
:101E2000524141EB0101A3F10103704795F0000F0E
:101E300037D04FEA11424FEA144721EA024624EA1A
:101E4000074C02FB07F106FB07F70CFB06F402FB4D
:101E50000CFC14EB074441EB17414FEA154714EB18
:101E60000C4441EB1C4125EA074C02FB07F506FB3D
:101E700007F70CFB06F602FB0CFC16EB074645EBDE
:101E8000174516EB0C4645EB1C42121951F10001A7
:101E900048BF7047B619524141EB0101A3F101035C
:101EA00070474FEA14454FEA114724EA054621EAF4
:101EB000074C05FB07F106FB07F70CFB06F24FF09A
:101EC000000605FB0CFC12EB074241EB174112EB3D
:101ED0000C4251EB1C4148BF7047921841EB010185
:101EE000A3F101037047000070B5044600688168E3
:101EF000C943C9071CD1816821F00101816000F04C
:101F0000CFFF05460FE000BF00F0CAFF401B0228CC
:101F100009D9A06A40F01000A062E06A40F0010018
:101F2000E062012070BD20688068C043C007EBD02C
:101F3000002070BD10B50146406A826A12F0500F51
:101F400005D0006A026BBDE8104008461047816A60
:101F500041F40071816201688968C1F34241072937
:101F60000CD1017B51B9816A21F480718162816A4F
:101F7000C90403D4816A41F00101816200F088FB49
:101F800010BD10B5406A816A41F040018162C16AAA
:101F900041F00401C16200F07DFB10BD10B5406A44
:101FA00000F077FB10BD0000F8B50026044600964F
:101FB00000688168C943C90728D0816841F00101E0
:101FC0008160134813490068B0FBF1F000E0401E47
:101FD00000900028FBD100F063FF054611E000BF30
:101FE00000F05EFF401B02280BD9A06A40F01000F1
:101FF000A062E06A40F00100E06284F82460012001
:10200000F8BD20688068C043C007E9D10020F8BD52
:102010008403002040420F0070B506460D46142090
:1020200004F058FD040008D006F00BF821463046B5
:102030002560BDE8704006F01FB8BDE8704006F0AE
:102040003FB80000F8B504460020124D124E8DF83E
:102050000000012C04D92846B16805F07FFFF8BDC7
:1020600004F0FFF80D4F386804F04EF956F82410CC
:10207000284605F073FF6946284614B100F0FAF8C7
:1020800001E000F02DF83221386804F00FF904F077
:10209000DFF8F8BDA40D00209C0200200C010020F8
:1020A00008B500250C4C06468DF80050207878B114
:1020B00004F0D7F8606904F027F9257069463046C6
:1020C00000F0D8F804F0C4F83221606904F0EEF8AA
:1020D000052004F001F8E9E7F8000020FEE7000021
:1020E0002DE9F35F3C48DFF8F4B08A4600270BF592
:1020F000B876D0F8008062E000980121426E504628
:10210000904700285BD0082457E017222146584604
:1021100000F088F9054656F8242031A1009805F012
:1021200079FB31A16A68009805F074FB6868B8B360
:10213000FEF760F9801C04F0CDFC5FEA000916D0C0
:102140006868FEF757F9421C48466968FEF7C8F907
:10215000092C03D929A14846FEF7B6F94846FEF7EF
:1021600049F90246D8F8343040464946984748462F
:1021700005F0A6FF082C18D00A2C16D020A200BF0C
:102180004FF49673D8F81410009803F0CDF8054674
:10219000009856F8251005F0E1FE062D15D106E051
:1021A000FFE70127D6F8801011E0AA68E8E7162CAF
:1021B0000BD0641CE4B2172C01D2002FA5D09AF8E2
:1021C00000001B2898D1BDE8FC9FF16F0127009803
:1021D00005F0C4FEF3E70000280100202C010020D8
:1021E0000D0A2573000000003E5B4D43552D3E4C0B
:1021F0003130315D3A25730D0A0000000D0A0000F0
:102200004F4B0000014800F013BC0000000B002001
:10221000014800F00DBC0000F80C0020014800F05F
:1022200007BC0000B40C002030B590F840500124E9
:10223000AC40C56B6C60046863604368102B036836
:1022400003D099600068C26030BD9A600068C160C8
:1022500030BD70474FF4807000F01CBD72B6FEE7D1
:10226000C06802E08A4204D040680268531CF9D179
:10227000002070472DE9F34F83B0402004F02AFC82
:10228000009000287ED058484FF000080768574853
:10229000019000F5B87603980121426E04989047AA
:1022A0000028F8D00498007808286CD00D2811D0A8
:1022B0001B2869D0009901F8080008F1010080B2DC
:1022C000402800D30020804603980121826E0498A4
:1022D0009047E0E70098002245A100F808209046CA
:1022E000009A039805F096FA08244FF4967B02E0D2
:1022F0000C2C00D1162417222146019800F092F8E8
:102300000546082C1FD00A2C1DD03DA08246BDB327
:102310006868FEF76FF8801C04F0DCFB5FEA0009D8
:102320002BD06868FEF766F8421C48466968FEF7DD
:10233000D7F8092C03D933A14846FEF7C5F80B2C72
:1023400003D0484605E0A868E0E72EA10098FEF714
:10235000BBF8054656F824202BA1039805F05AFA3D
:102360002A462BA1039805F055FA2846FEF742F8B5
:1023700002467B6B294638469847484605F0A0FE42
:102380005B4602E02CE018E024E0524679690398AD
:1023900002F0CAFF0546039856F8251005F0DEFD49
:1023A000062D01D1162C03D1F16F039805F0D6FD4F
:1023B000641CE4B20D2C8CD29AE75FEA080006D0C8
:1023C0000121039804F0AAFCA8F1010080B21FFAD1
:1023D00080F860E7009805B0BDE8F04F05F070BEEA
:1023E00005B0BDE8F08F0000280100202C0100207E
:1023F0000D0A496E7075743A25730D0A00000000CD
:102400004F4B00000D0A00000D0A2573000000006C
:102410003E5B4D43552D3E4C3130315D3A25730DB9
:102420000A00000010B500230AE000BF00EB03140F
:1024300024788C4202D100EB031010BD5B1C9BB2D0
:102440009342F3D3002010BD70B50446B1F5614F3F
:1024500001D9002070BD084606F0F4FF014613487C
:1024600006F0F6FE054606F0B5FF20822846104924
:1024700006F0FCFF06460F4906F0EAFE06F0AAFF4A
:10248000A08430460C4906F0E3FE06F0A3FFE0848A
:1024900020852846094906F0E9FF094906F0D8FEDB
:1024A00006F098FF6085012070BD0000002474498B
:1024B0000000A04000005041000050420000A84130
:1024C0000000D04110B54FF48051034800F0DEFC0D
:1024D000002800D0012010BD00080140030002D0F8
:1024E000086820B901E00020704703F10800086087
:1024F00042681068401C00D1DA680A6010467047D4
:1025000000B5002806D00449FFF7E8FF0068411C29
:1025100000D1002000BD00000C000020002104E0DC
:1025200000F001021144C9B240080028F8D1022984
:1025300001D30120704700207047000030B590F8AB
:102540002420012A1ED0012280F824200A7A012AA0
:102550000268536818D023F040035360D1E9002388
:102560001A4303685C680A4D2C4022435A60036892
:10257000CA685A62026809699162002180F82410D1
:10258000084630BD022030BD43F04003E5E70000BF
:10259000E0FD3FFFF8B50024009490F82420254684
:1025A000012A12D0012280F824204A681F23072A1A
:1025B0000DD20668776B521E02EB820293409F4356
:1025C0000B6893401F43776319E00220F8BD06684B
:1025D0000D2A0AD2376BD21F02EB820293409F432F
:1025E0000B6893401F43376309E0F76A0D3A02EB2B
:1025F000820293409F430B6893401F43F7620A682F
:10260000072306680A2A0AD3F7680A3A02EB42024D
:1026100093409F438B6893401F43F76008E03769FE
:1026200002EB420293409F438B6893401F43376104
:102630000A68102A01D0112A20D1124B02689A424E
:1026400017D193681B0219D4936843F40003936075
:102650000968102912D10C490C4A0968B1FBF2F142
:1026600001EB8101490000E0491E00910029FBD1E6
:1026700004E0816A41F020018162012480F8245045
:102680002046F8BD002401408403002040420F0092
:1026900070477047704700002DE9F0414FF0000788
:1026A00004003D467ED0A06A002628B9E66284F880
:1026B0002460204600F07EF82046FFF715FCA16A52
:1026C000C90600D420B1A06A40F01000A06269E001
:1026D000A16A21F4885141F00201A1626268E169B6
:1026E000237B0A4347EA43010A43A1684FF48077FA
:1026F000B94209D0012907D05FF0000194F814C055
:10270000BCF1010F02D00AE03946F7E7F3B1A36A42
:1027100043F02003A362E36A43F00103E36223680A
:10272000D3F804C02CF4694C4CEA010CC3F804C083
:1027300021688B68DFF870C003EA0C0313438B60D9
:10274000A168B9420BD0012909D00CE0DFF85CC0C8
:10275000A3690CEB43330B4343F40061DFE7218AA9
:102760000D05A5F580152168CB6A23F470032B4372
:10277000CB62216889680E4B1940914208D1E6620C
:10278000A16A21F0020141F00101A162BDE8F081DE
:10279000A06A20F0020040F01000A062E06A40F061
:1027A0000100E0620120F1E7FDF7E1FF00E0FFFF3B
:1027B000FE0E1FFF70B586B00026054600960196F6
:1027C0000296039600681A4988422FD119498869F0
:1027D00040F400708861886900F400700490886992
:1027E00040F0040088618869694600F004000490A4
:1027F00006200090032001900F4800F057FA104C7B
:102800000E48C4E900068020C4E90260800020610F
:10281000800060612020A0610002E061204600F09D
:10282000B1F908B1FFF71AFD2C62656206B070BD00
:10283000002401400010024000080140080002404E
:10284000000B00202DE9F047894604463B4900680B
:102850003B4F0E1D9046884201D0B84207D13068E8
:1028600010F4702F03D001252846BDE8F08794F8B6
:10287000240001280CD0012084F824002046FFF712
:1028800093FB05004FF0000004D084F82400EBE730
:102890000220EAE7A16A40F60162914341F48071A7
:1028A000A1622168B94218D1326812F4702F14D095
:1028B000A16A41F48011A1623168490505D5A16A78
:1028C00021F4005141F48051A162A16AC9040AD5E2
:1028D000E16A21F00601E16206E0A26A22F48012B8
:1028E000A2624968E9E7E06284F82400216A154899
:1028F0008862216A1448C862216A14480863216802
:102900006FF0020008602068816841F48071816086
:10291000216843464A464C31206A00F061F920683C
:102920008168C1F342410729816803D041F48011D5
:10293000816099E741F4A001FAE70000002401401A
:1029400000280140351F00089D1F0008831F000854
:1029500010B590F821100022022905D004218163CE
:1029600080F82020012010BD01680B6823F00E03C1
:102970000B6001680B6823F001030B6090F8403096
:10298000C46B012101FA03F3636080F8211080F821
:102990002020104610BD000010B590F82110002432
:1029A000022903D00421816301243DE001680A6803
:1029B00022F00E020A6001680A6822F001020A6031
:1029C0001A4A0168914201D1012121E0174A1432CB
:1029D000914201D110211BE0144A2832914201D1C9
:1029E000891515E0114A3C32914201D189140FE05A
:1029F0000E4A5032914202D14FF4803108E00B4A26
:102A00006432914202D14FF4801101E04FF08071A5
:102A1000064A083A5160012180F82110002180F80F
:102A20002010416B01B18847204610BD08000240CC
:102A30002DE9F05FC16B0C6801680B68D0F840C0ED
:102A4000042202FA0CF2494DDFF824A1494E4A4F04
:102A5000DFF828B1DFF828E122422CD05A072AD526
:102A60000A68920603D40A6822F004020A60016828
:102A7000A94201D1042219E0514501D1402215E0BB
:102A8000B14202D14FF4806210E0B94202D14FF45A
:102A900080420BE0594502D14FF4802206E0714597
:102AA00002D14FF4800201E04FF080622F490839D3
:102AB0004A60C16A3BE04FF0020808FA0CF818EAD5
:102AC000040F4FF000094FF0010235D05FEA837820
:102AD00032D50B689B0605D40B6823F00A030B6004
:102AE00080F821200168A94201D1022219E0514554
:102AF00001D1202215E0B14202D14FF4007210E062
:102B0000B94202D14FF400520BE0594502D14FF4C3
:102B1000003206E0714502D14FF4001201E04FF09F
:102B20000072124908394A6080F82090816A0029B1
:102B30001AD0BDE8F05F0847082505FA0CF52542D4
:102B400012D01B0710D50B6823F00E030B6090F812
:102B50004010C36B02FA01F15960826380F82120B2
:102B600080F82090016BE2E7BDE8F09F080002408A
:102B70001C00024030000240440002405800024065
:102B80006C00024030B528B308C813491422194418
:102B9000B1FBF2F18900C1631049816302214177E1
:102BA0001A6843F6F0718A43D0E900142143D0E952
:102BB00002452C432143046921434469214384692C
:102BC00021431143196000214163012242770177BB
:102BD000084630BD012030BDF8FFFDBF00000240B7
:102BE00070B5044690F82000002501280CD0012083
:102BF00084F8200094F821600020012E06D084F88B
:102C000020000225284670BD022070BD022684F8EF
:102C10002160A0632068066826F001060660204651
:102C2000FFF702FBE06A00282068016802D041F04B
:102C30000E0106E021F0040101602068016841F006
:102C40000A0101602068016841F001010160D9E7D3
:102C500010B50F4CB0F5807F19D1A07E002816D199
:102C600001202076A07694F9190000F097F96169A7
:102C70000020096848626169A08C0968C8626169BE
:102C8000A08CC8606069BDE8104000F08BBE10BD2C
:102C9000F4030020044910B50A68024202D008601B
:102CA000FFF7D6FF10BD0000140401402DE9F84FD6
:102CB000DFF8B891002409F1040A0AF1040B234655
:102CC0000F270BF1040EC9E00125A5402A40AA42B6
:102CD0007DD1674ED1F804C0ACEB0608B44532D0C4
:102CE00014DCBCF1030F3AD009DCBCF1000F2AD090
:102CF000BCF1010F1CD0BCF1020F31D11DE0BCF1C1
:102D0000110F17D0BCF1120F2AD119E0B8F5881FA6
:102D100019D006DCB8F5803F15D0B8F5801F1FD15B
:102D200011E0B8F5001F0ED0B8F5041F18D10AE065
:102D3000CB6815E0CB681B1D12E0CB6808330FE0B1
:102D4000CB680C330CE08B682BB1012B4FF00803E0
:102D500003D0456104E0042302E0056100E00023A4
:102D6000FF2A01D8064601E000F104064FEA840577
:102D700001D9A5F12005D6F8008007FA05FC28EA5C
:102D80000C0803FA05F548EA0508C6F800804D6806
:102D9000ED0062D5374DAE6946F00106AE61AD6912
:102DA00024F0030605F001050095334D06EB050CF4
:102DB000DCF80850A607360F07FA06F825EA0805DA
:102DC000DFF8B880404503D14FF0000817E044E039
:102DD000DFF8AC80404502D14FF001080FE0DFF88A
:102DE000A480404502D14FF0020808E0DFF8988047
:102DF000404502D14FF0030801E04FF0040808FA03
:102E000006F848EA0508CCF808804D68D9F8006053
:102E1000ED034D4601D5164300E096432E604D6804
:102E2000DAF80060AD03554601D5164300E096433D
:102E30002E604D68DBF80060ED025D4601D516435B
:102E400000E096432E604D68DEF80060AD027546E6
:102E500001D5164300E096432E60641C0D682A4697
:102E6000E5407FF431AFBDE8F88F00000004014079
:102E70000000111000100240000001400008014055
:102E8000000C01400010014000140140806808401F
:102E900000D0012070470AB1016170470904FBE7C7
:102EA000014880687047000078030020024881686C
:102EB000027811448160704778030020074810B5FC
:102EC000016841F010010160032000F0A5F8002026
:102ED00000F006F800F03EF8002010BD002002408F
:102EE00000B5014687B00022192000F075F81920BE
:102EF00000F065F81348816941F4006181618069DF
:102F000005A900F400600690684600F0A3F900F0FF
:102F1000D1F90D490D4AB0FBF1F10D48491E02608F
:102F2000416040F2E7320021C0E90321816000F0F6
:102F3000CFFC10B1012007B000BD054800F032FD04
:102F4000F9E700000010024040420F00002C014051
:102F50003C0D00200F4808B5816941F001018161F5
:102F6000816901F001010091C16941F08051C161A5
:102F7000C069002200F0805000900F21901E00F0E8
:102F80002BF80548416821F0E06141F00071416093
:102F900008BD0000001002400000014000280DDBC9
:102FA00000F01F02012191404009800000F1E02063
:102FB000C0F88011BFF34F8FBFF36F8F70470028A9
:102FC00009DB00F01F02012191404009800000F15F
:102FD000E020C0F800117047F0B40E4B1B680C469F
:102FE000C3F30223C3F10705042D00D90425191DDD
:102FF000072901D2002300E0DB1E012606FA05F1B5
:10300000491E214099409E40761E16403143F0BC37
:1030100002F0D6B90CED00E0064900F0070208689E
:103020004FF6FF03184040EA0220034A10430860AD
:10303000704700000CED00E00000FA052DE9F843B0
:1030400005460078354CC00754D0E0690026C00022
:1030500008D4E06940F08050E061E069012600F0AA
:10306000805000902E480168C90512D4016880463E
:1030700041F480710160FFF713FF074605E000BFD0
:10308000FFF70EFFC01B642823D8D8F80000C00546
:10309000F6D5206A10F4407021D0A98801F440715F
:1030A00081421CD0206A1F49012220F440700A602E
:1030B00000220A602062C00711D0FFF7F1FE074628
:1030C00041F2883808E000BFFFF7EAFEC11B414526
:1030D00002D90320BDE8F883206A8007F4D5206A6E
:1030E000696820F44070084320621EB1E06920F056
:1030F0008050E0612878800705D56068A96820F4D1
:103100004040084360602878C00605D56068E968DB
:1031100020F48000084360600020DBE700100240DC
:1031200000700040400442422DE9F0470F46050080
:1031300061D0434E306800F00700B84209D23068D1
:1031400020F0070038433060306800F00700B842D4
:1031500051D128683B4C810712D5400703D56068E0
:1031600040F4E06060602878000703D5606840F4B0
:10317000605060606068A96820F0F00008436060FB
:103180002878C00728D06868012810D02168022854
:1031900010D0890700292EDA616821F0030101436C
:1031A0006160FFF77DFE804641F288390DE02168BD
:1031B0008903EFE78901EDE7FFF772FEA0EB080155
:1031C000494502D90320BDE8F0876068696800F0CE
:1031D0000C00B0EB810FEFD1306800F00700B8426F
:1031E0000BD9306820F0070038433060306800F0B9
:1031F0000700B84201D00120E5E72878400705D54F
:103200006068E96820F4E06008436060287800079F
:1032100006D56068296920F4605040EAC10060600A
:1032200000F058F86168084AC1F30311515CC840C6
:103230000649086006480068FFF752FE0020C2E712
:1032400000200240001002409C9A000884030020E5
:103250007C0300200F2202600C4A536803F0030332
:103260004360536803F0F0038360536803F4E06342
:10327000C36052684FF4E06303EAD202026104487B
:10328000006800F00700086070470000001002406E
:10329000002002400448054900684968044AC1F317
:1032A0000221515CC8407047840300200010024096
:1032B000AC9A00080448054900684968044AC1F30B
:1032C000C221515CC84070478403002000100240B6
:1032D000AC9A000812A185B00FC98DE80F0014A0A8
:1032E000144A006804905168134801F00C03042B41
:1032F00010D0082B0ED1C1F38343C9031DF803007E
:103300000AD5516804AAC1F34041515C0A4A5043AE
:10331000B0FBF1F005B0704708494843FAE70000F8
:1033200002030405060708090A0B0C0D0E0F101006
:10333000010200000010024000127A0000093D0066
:103340002DE9F84F040070D02078C04DC00749D057
:103350006868C0F38100012807D06868C0F3810065
:10336000022809D16868C00306D52868800339D5CA
:1033700060680028E7D035E06068B0F5803F0BD08A
:1033800010B1B0F5A02F11D0286820F4803028604B
:10339000286820F4802002E0286840F4803028600B
:1033A000606890B1FFF77CFD06460AE0286840F4AB
:1033B00080202860F0E700BFFFF772FD801B6428C3
:1033C00073D828688003F7D50CE0FFF769FD06463F
:1033D00005E000BFFFF764FD801B6428F0D8286873
:1033E0008003F7D420789A4E80074FF001094FF000
:1033F000000839D5686810F00C0F07D06868C0F372
:103400008100022809D16868C00306D428688007B3
:1034100014D52069012808D110E02069B0B1C6F8A0
:103420000090FFF73DFD074605E00AE1FFF738FD94
:10343000C01B0228C4D828688007F7D528686169AE
:1034400020F0F80040EAC10028600DE0C6F80080D6
:10345000FFF726FD074604E0FFF722FDC01B022808
:1034600023D828688007F7D4207800072CD579481E
:10347000A169D9B1C0F80090FFF712FD074604E03A
:10348000FFF70EFDC01B02280FD8686A8007F7D52A
:1034900071484FF4FA510068B0FBF1F0009000BFA2
:1034A0000098411E0091FAD20EE080E0C0F8008042
:1034B000FFF7F6FC074604E0FFF7F2FCC01B02280A
:1034C00075D8686A8007F7D42078400760D5E86926
:1034D0000027C00008D4E86940F08050E861E8693E
:1034E000012700F0805000905C480168C90513D4A2
:1034F0000168834641F480710160FFF7D1FC824688
:1035000006E000BFFFF7CCFCA0EB0A0064284ED811
:10351000DBF80000C005F5D5E06801280AD008B145
:10352000052813D0286A20F001002862286A20F0BC
:10353000040002E0286A40F001002862E06841F2DD
:10354000883B98B1FFF7ACFC82460BE0286A40F05C
:1035500004002862EEE700BFFFF7A2FCA0EB0A011F
:1035600059455AD8286A8007F6D50CE0FFF798FC31
:10357000824605E0FFF794FCA0EB0A0159454CD8C0
:10358000286A8007F6D41FB1E86920F08050E8610E
:10359000E06988B36968C1F38101022944D0022837
:1035A000C6F8608004D0FFF77BFC044638E034E0C6
:1035B000FFF776FC074604E0FFF772FCC01B022809
:1035C0002BD828688001F7D4206AB0F5803F05D158
:1035D0006868A16820F4003008436860D4E90801F5
:1035E0000843696821F4741108436860C6F8609064
:1035F000FFF756FC044606E025E000BFFFF750FC4D
:10360000001B022809D828688001F7D51BE000BFFD
:10361000FFF746FC001B022802D90320BDE8F88F03
:1036200028688001F4D40EE00128F7D06868226A87
:1036300000F48031914204D1616A00F47010884234
:1036400001D00120EAE70020E8E700000010024076
:103650000000424280044242840300200070004087
:1036600070B5040009D0606A002540B1256165612C
:10367000A56294F8510040B10CE0012070BD606873
:10368000B0F5827FF4D0E561F2E784F8505020462F
:1036900000F040F8022084F851002068016821F011
:1036A00040010160A088218900F4827001F4044186
:1036B0000843A18901F400610843217C01F0020163
:1036C0000843217D01F001010843218B01F40071C1
:1036D0000843217F01F03801084394F8201001F0DD
:1036E00080010843218D01F40051084321680860DE
:1036F000A069042101EA1040216848602068C1697E
:1037000021F40061C1616565012084F85100002049
:1037100070BD000000B585B00021009101910291BB
:1037200003910068104988421BD11048C16941F4D7
:103730008041C161C16901F480410491816941F016
:10374000080181618069694600F0080004904FF427
:103750003040009002200190032003900448FFF7BE
:10376000A5FA05B000BD000000380040001002407E
:10377000000C01402DE9F0470446807E984616462D
:103780000D4628BBCDB1C6B1FFF78AFB074694F8BA
:103790002C004FF0000998B116494FF48070086072
:1037A00094F91900FFF70BFC84F82C90617F4846D0
:1037B000012E17D9E28BA95415E00120BDE8F0874E
:1037C000FFF76EFBC11B414504D8B8F1000F01D0D3
:1037D0000220F3E7A4F81E9084F81D9085F800906D
:1037E0000320EBE729706077E18BB14200D1E083E1
:1037F0000020E3E7140401402DE9F0419846164605
:103800000F0004460AD04EB1FFF74AFB2681054659
:10381000E760607920B10220BDE8F0810120FBE77C
:1038200001206071207120680026006846622168CE
:10383000208A0968C8622168208AC860206800F070
:10384000B1F807E0FFF72CFB411B414508D8B8F160
:10385000000F05D0A07C0028F4D0A6740020DBE780
:103860000320D9E77047704770B590F83C20012AD3
:1038700026D0012480F83C40022280F83D200368D5
:103880005A689D6822F070060A6832435A600D4BF0
:1038900002689A4208D0B2F1804F05D00A4B9A4292
:1038A00002D00A4B9A4204D1496825F0800319439B
:1038B000916080F83D40002180F83C10084670BDC2
:1038C000022070BD002C01400004004000080040B0
:1038D00010B5040003D094F83D0010B107E00120BA
:1038E00010BD002084F83C00204600F01FF80220A4
:1038F00084F83D00211D206801F06CFA012084F855
:10390000460084F83E0084F83F0084F8400084F8C4
:10391000410084F8420084F8430084F8440084F8AD
:10392000450084F83D00002010BD000008B5016886
:103930001948B1F1804F11D0184A914217D1C1698D
:1039400041F00201C161C069002200F00200009054
:1039500004211D20FFF740FB1D2019E0C16941F043
:103960000101C161C06900F00100009008BD0C4A6E
:103970009142FBD1C16941F00401C161C0690022DB
:1039800000F00400009006211E20FFF725FB1E20FA
:10399000BDE80840FFF713BB0010024000040040E0
:1039A0000008004090F83D10012901D00120704727
:1039B000022180F83D100168CA6842F00102CA6025
:1039C00000680B49884208D0B0F1804F05D0094902
:1039D000884202D00849884204D1816801F0070179
:1039E000062903D0016841F0010101600020704701
:1039F000002C014000040040000800400168CA6833
:103A000022F00102CA6001680A6A41F211131A42E7
:103A100007D10A6A9B101A4203D10A6822F00102F8
:103A20000A60012180F83D100020704770B50446FF
:103A300090F83C00012817D0012584F83C50022062
:103A400084F83D002068826822F0770222F47F42E9
:103A500082600868502830D00DDC20284DD005DC6D
:103A600098B310283BD148E0022070BD302844D0E4
:103A7000402834D139E0602828D0702806D0B0F52D
:103A8000805F2CD0B0F5005F29D10AE0CB68D1E986
:103A90000121206801F0E1F92068816841F0770197
:103AA00009E0CB68D1E90121206801F0D6F920684E
:103AB000816841F48041816011E0CA6849682068EA
:103AC00001F080FA5021206807E016E0CA684968D2
:103AD000206801F088FA6021206801F0C8F984F8B4
:103AE0003D50002084F83C0070BDCA6849682068D9
:103AF00001F068FA40212068EFE72268014610468D
:103B0000EBE7704770B50446006801694FF00005A7
:103B1000C943890715D4C168C943890711D4E91E6F
:103B2000016101202077206880698007204602D04B
:103B3000FFF7E7FF04E000F0C9F8204600F058F96D
:103B4000257720680169C943490717D4C168C9436B
:103B5000490713D46FF00401016102202077206827
:103B6000806910F4407F204602D0FFF7CAFF04E0CE
:103B700000F0ACF8204600F03BF925772068016999
:103B8000C943090716D4C168C943090712D46FF0A5
:103B900008010161042020772068C0698007204661
:103BA00002D0FFF7AEFF04E000F090F8204600F0EE
:103BB0001FF9257720680169C943C90617D4C16870
:103BC000C943C90613D46FF01001016108202077A2
:103BD0002068C06910F4407F204602D0FFF791FFB3
:103BE00004E000F073F8204600F002F92577206821
:103BF0000169C943C90708D1C168C943C90704D1CC
:103C0000891E0161204600F043F920680169C9431B
:103C1000090609D4C168C943090605D46FF08001BB
:103C200001612046FFF71EFE20680169C94349066D
:103C300009D4C168C943490605D46FF04001016148
:103C4000204600F023FA20680169C94389060BD495
:103C5000C168C943890607D46FF02001016120467D
:103C6000BDE87040FFF7FFBD70BD000000B585B036
:103C7000002100910191029103910068B0F1804F01
:103C80001BD10F48816941F0080181618069694653
:103C900000F0080004904FF40060009002200190B2
:103CA00003900848FFF702F80748416821F4407183
:103CB00041F0E06141F40071416005B000BD0000D9
:103CC00000100240000C014000000140704770B538
:103CD000044690F83C000D4601280AD0012084F8E3
:103CE0003C0042B1042A18D0082A2AD00C2A4DD10F
:103CF00039E0022070BD206801F0C2F820688169B7
:103D000041F0080181612068816921F0040181612D
:103D1000206881692A69114311E0206801F0D8F810
:103D20002068816941F4006181612068816921F422
:103D300080618161206881692A6941EA022181618B
:103D400024E0206801F0F0F82068C16941F0080122
:103D5000C1612068C16921F00401C1612068C169A5
:103D60002A69114311E0206801F00AF92068C1694D
:103D700041F40061C1612068C16921F48061C161C1
:103D80002068C1692A6941EA0221C161002084F8E2
:103D90003C0070BD10B5040003D094F83D0010B194
:103DA00007E0012010BD002084F83C00204600F010
:103DB0001EF8022084F83D00211D206801F00AF859
:103DC000012084F8460084F83E0084F83F0084F81F
:103DD000400084F8410084F8420084F8430084F8ED
:103DE000440084F8450084F83D00002010BD704771
:103DF0007047000010B50446022249B104290ED0D4
:103E0000082913D094F84100012816D0012010BDD4
:103E100094F83E000128F9D184F83E200FE094F890
:103E20003F000128F2D184F83F2008E094F84000D8
:103E30000128EBD184F8402001E084F841200122E0
:103E4000206800F0FDFF0F492068884203D1426CD2
:103E500042F4004242642068884208D0B0F1804FAA
:103E600005D00949884202D00849884204D18168B6
:103E700001F00701062903D0016841F0010101604A
:103E8000002010BD002C014000040040000800404C
:103E90002DE9F04701687848764C814203D1BDE8AE
:103EA000F047FFF703B8754A0127754800254FF022
:103EB0000209914248D12179002917D06279411530
:103EC000012A15D0022A1AD0032A0FD0042A0DD1B4
:103ED0000122FEF7E0FFA5712089401E0004000CBE
:103EE000208122D06771E068401CE060BDE8F08767
:103EF0000022FEF7D0FF84F80590A571F6E7E2688E
:103F0000A3791278DA4002F00102FEF7C4FFA0792B
:103F1000401CC0B2A0710828E8D394F8300008B162
:103F2000032000E004206071E0E7657125712776C9
:103F30002068FFF763FD20680068456294F9190066
:103F4000FFF73DF8A774D1E74E4A9142CED1217ECA
:103F50000029CBD04C4EA27E4FF4807196F80080A1
:103F6000012A23D0022A45D0032A73D0042ABDD1C6
:103F7000FEF78CFF68F35F00C0B23070217F491CF0
:103F8000C9B22177032967D3FEF7C8FA58B1E08B8D
:103F9000401CE083A5766069FFF730FD606900682A
:103FA000456284F82C70257735709FE7FEF76EFF29
:103FB00068F35F00C0B23070217F491CC9B221771D
:103FC000032949D3FEF7AAFA20B10420A076357060
:103FD00025778BE784F81A906169207F04EB400015
:103FE0000968808CC862207F616904EB4000808C86
:103FF000C860ECE7FEF74AFF68F35F00C0B23070BC
:10400000217F491CC9B22177032925D3FEF786FAFF
:10401000E17E8840617F08436077E07E072808D30F
:10402000E57694F8300008B1032000E00420A07683
:1040300001E0401CE0766169207F04EB40000968E4
:10404000808CC862207F616904EB4000808CC8606E
:10405000A9E7FFE7A57649E704EB41006169808C99
:104060000968C862207F616904EB4000808CC860E9
:104070003CE70000F4030020002C01400004004055
:104080000008014000080040F4000020704710B50F
:1040900004460068416994F83920C1F3C011212A0F
:1040A0000BD151B1416921F080014161206B08B110
:1040B000FEF74EFC204601F024F82068416994F890
:1040C0003A20C1F38011222A0BD151B1416921F06C
:1040D00040014161606B08B1FEF73AFC204601F0F7
:1040E00002F8002010BD704770B5026804461068E1
:1040F000D168536910F00F0F52D003F0010501F49D
:1041000090762E435FD0C20705D0CA0503D5E26B77
:1041100042F00102E263420705D5DA0703D0E26B01
:1041200042F00202E263820705D5DA0703D0E26BB0
:1041300042F00402E263020707D501F020022A439D
:1041400003D0E26B42F00802E263E26B002A33D054
:10415000800604D5880602D5204600F0DBFF2068E3
:104160004069E16BC0F38010090700D428B32046F2
:1041700000F0B9FF2068416949061AD5416921F06C
:1041800040014161606BA0B12D494163606BFEF756
:1041900003FC002810D0606B416BBDE870400847FD
:1041A000830610D58B060ED52046BDE8704000F082
:1041B000B1BF2046FFF797FF70BD2046FFF793FF82
:1041C0000020E06370BD03062BD50B0629D594F8BB
:1041D00039002128F6D1A068B0F5805F01D12069AF
:1041E000B0B1206A411C2162216800784860E08CEF
:1041F000401E0004000CE084E4D12068C16821F076
:104200008001C1602068C16841F04001C16070BD9B
:10421000206A0088C0F308005060206A801C206279
:10422000E5E74006F3D54806F1D5D168204621F0F0
:104230004001D160202184F8391000F03FF970BDB1
:104240000F50000870B5040004D094F83900002520
:1042500010B106E0012070BD84F83850204600F00F
:1042600023F8242084F839002068C16821F4005123
:10427000C160204600F094FF2068016921F490415C
:1042800001612068416921F02A0141612068C1680B
:1042900041F40051C160E563202084F8390084F8BE
:1042A0003A00002070BD00002DE9F04186B00024E6
:1042B00006460094019402940394006832498842AF
:1042C0005FD13248816941F480418161816901F4A3
:1042D00080410491816941F00801816180692C4D20
:1042E00000F008000490402000900220019003207C
:1042F000039069462846FEF7D9FC4FF0800801205C
:10430000CDF80080CDE90140474669462846FEF7D2
:10431000CDFC2048416841F0E06141F0040141607A
:104320001E4D1D48C5E90004C5E902472C618714EC
:104330006C61C5E906472846FEF724FC08B1FDF785
:104340008DFF75636E62154D13484435143801C5F1
:104350001020A5E81101114845F8104944306C615E
:10436000C5E90647FEF70EFC08B1FDF777FF356398
:104370000022052125206E62FEF72EFE2520FEF785
:104380001EFE06B0BDE8F08100380140001002407A
:10439000000C01400000014058000240B40C002015
:1043A000F8B5044690F83A0020283CD1C1B3BAB31E
:1043B00094F83800012836D0012084F83800A16232
:1043C000A2850025E563222084F83A00636B174834
:1043D0009862636B1648D862636B16481863606B0B
:1043E000134645630846666B216802463046091D40
:1043F000FEF7F6FB206801684168009184F83850A8
:10440000C16841F48071C1602068416941F00101D7
:1044100041612068416941F0400141610020F8BDDF
:10442000FFE70120FBE70220F9E7000069500008E0
:10443000A55000081F5000087047704770B504462B
:1044400090F83900202830D169B362B394F838006D
:1044500001282AD0012084F838002162A284E28455
:104460000025E563212084F83900236B1048986209
:10447000236B1048D862236B0F481863206B1346D8
:1044800045632668206B321DFEF7AAFB21686FF09A
:104490004000086084F838502068416941F080018C
:1044A0004161002070BD012070BD022070BD000080
:1044B000AF500008DD5000081F50000870477047DB
:1044C00030B589B0002420216846FCF7AAF80548D9
:1044D0006B462022006821468069D0F86852A847C0
:1044E00009B030BD280100202DE9F0410024184F0B
:1044F000184D01E0052C01D2384600E01648052C85
:1045000002D20821A14007E0072C03D2621F01213B
:10451000914001E04FF4806189B2FEF7B7FC48B1E9
:1045200000262868214632468069D0F83432984700
:1045300010B107E00126F4E73346224607A10B48F5
:1045400003F068F9641CA4B2082CD3D3BDE8F08151
:104550000008014028010020000C014044445B2574
:10456000645D203D20307825640D0A00A40D0020F4
:1045700070B58AB018216846FCF753F800241E482D
:10458000069407941B4908940160891581600126EF
:1045900006730475022505614FF460214460C16112
:1045A000FEF77AF808B1FDF759FE1448CDE9000589
:1045B000039404948DF8084069460F48FDF7BEFF48
:1045C00008B1FDF74BFE06200696CDE9076006A967
:1045D0000948FDF7DFFF08B1FDF740FE069506A983
:1045E00005480795FDF7D6FF002801D0FDF736FEF8
:1045F0000AB070BD00240140D00A002000028000F3
:10460000114808B5416941F001014161406900224A
:1046100000F00100009005210B20FEF7DDFC0B20CF
:10462000FEF7CDFC002205210E20FEF7D5FC0E2062
:10463000FEF7C5FC002205210F20FEF7CDFCBDE8EA
:1046400008400F20FEF7BBBC0010024030B5A3B0FD
:1046500000251C951CA81D9501F04AFD224C012146
:10466000A0611E951EA81F9501F04EFD1F49E06137
:104670000022D1E90001CDE92001012120A801F0AB
:10468000F5FD1A4960611C2208316846FBF76DFF91
:104690001749684601F0B2FD144960601C222431BC
:1046A00007A8FBF762FF124907A801F0A7FD0F4911
:1046B000A0601C2240310EA8FBF757FF00210EA876
:1046C00001F09CFD0949E0601C225C3115A8FBF754
:1046D0004CFF002115A801F091FD20613221606995
:1046E00001F0E4FD23B030BDF80000200897000879
:1046F000A40D0020F0B585B0002536480095019541
:1047000002950395816941F010018161816901F091
:1047100010010491816941F020018161816901F0FA
:1047200020010491816941F004018161816901F0F6
:1047300004010491816941F0080181618069264F7B
:1047400000F00800049001224FF460613846FEF743
:10475000A2FB06200326CDE9000669463846FEF78F
:10476000A5FA41F2F800CDE900050124694602945A
:104770003846FEF79BFA40F20340CDE90005694652
:1047800002941648FEF792FA200200901448CDE9F0
:10479000010469463846FEF789FA6002CDE9000453
:1047A000CDE9024669463846FEF780FAB002CDE907
:1047B00000040220CDE9024069463846FEF776FA49
:1047C000002206211720FEF707FC1720FEF7F7FB53
:1047D00005B0F0BD0010024000080140000C01408F
:1047E000000021100F4810B50D4901604FF482718F
:1047F000416000218160C1604FF480220161C0E905
:104800000512C1610162416281620A21C162FEF743
:1048100027FF002803D0BDE81040FDF71FBD10BDE5
:1048200000380040440B002010B54FF416510948E1
:10483000FDF70AFE07480021074A80F8301081740E
:104840004171026080F82C10817604494161172182
:10485000417610BDF4030020E40B00202C0C002056
:1048600010B58EB000240794089409940A940B9410
:104870001C2168460C94FBF7D4FE20484FF0804181
:10488000016041F61F41C0E9011442F20F71C0E915
:10489000031480218161FFF71BF808B1FDF7DEFCEE
:1048A0004FF48050079007A91448FFF7BFF808B1EC
:1048B000FDF7D4FC1148FFF76DFA08B1FDF7CEFC07
:1048C0000B940BA90D480C94FEF7CEFF08B1FDF731
:1048D000C5FC6020009041F28830CDE901040C2233
:1048E000694606480494FFF7F2F908B1FDF7B6FCF3
:1048F0000248FFF7BBF90EB010BD00009C0B002072
:1049000010B586B0002417480094019402940394D3
:1049100004941349059401604721C0E901144FF63E
:10492000FF71C0E903148461FEF7D2FF08B1FDF7FF
:1049300095FC4FF48050009069460A48FFF776F8DE
:1049400008B1FDF78BFC049404A906480594FEF712
:104950008BFF002801D0FDF781FC06B010BD0000E0
:1049600000040040E40B002010B586B00024174876
:1049700000940194029403940494134905940160F3
:104980004721C0E901144FF6FF71C0E903148461A7
:10499000FEF79EFF08B1FDF761FC4FF480500090D8
:1049A00069460A48FFF742F808B1FDF757FC04943E
:1049B00004A906480594FEF757FF002801D0FDF72B
:1049C0004DFC06B010BD0000000800402C0C00207B
:1049D00010B50E4C0C480C2120604FF4E1306060A3
:1049E0000020A060E060C4E90401A061E06120460D
:1049F000FFF728FC08B1FDF731FC2068C16841F0E1
:104A00001001C16010BD000000380140740C00208E
:104A10002DE9F0414D4D0026A868017A31B1297881
:104A200021B12E700068FDF76BFD00E0688881B24F
:104A3000698008297ED2454AC1EBC100143212EBCD
:104A4000800477D0A86800287ED0227B0127052A21
:104A500052D2DFE802F0032A033434006661FDF726
:104A600031FD002870D0A16920468847207B0228AC
:104A700019D12F70A86869880068FDF7F1FB20B98B
:104A8000A86869880068FDF7C7FAA868017A51B973
:104A90006988491C89B26980082902D36E80012186
:104AA00000E000210172277326E06069401C60610C
:104AB0002169884220D30420666120731CE040688D
:104AC000FDF7CEFB20B9A86869884068FDF7A4FA15
:104AD000A868017A21B10068698800F076F80AE0D8
:104AE0006988491C89B26980082902D36E80012136
:104AF00000E0002101722673A868017A002923D002
:104B00000268216912681144AA88891C521C92B259
:104B1000AA80914218D8AE802F70406801680029A1
:104B200012D00A491031FDF7D9FC04460168A86883
:104B3000006800E008E0FDF76FFAA86821684068A7
:104B4000BDE8F04100F041B8BDE8F0810000002070
:104B5000094D0A4C4FF0FF363146E86901F01CFB65
:104B60000028F9D120686421C26A9047132204A169
:104B7000084803F04BF9EFE7F80000202801002077
:104B800052656365697665642061206461746121A2
:104B90000D0A0000A40D0020FEE7000001B5002072
:104BA00060F307014FF4E132024B684600F088FCE5
:104BB00008BD000061630008FEE7FFF795FCFFF702
:104BC0007FFC322001F088FAF7E770B5FDF748FB6B
:104BD00004000BD02068401C08D0204603F0E8F900
:104BE0000546204603F06CFA284670BD002070BDD3
:104BF000F0B58BB00027294E0097044681883068B5
:104C000005AA8069D0F82C32984725A2054607CA24
:104C100002AB83E80700A0788DF80A00E0788DF8F1
:104C20000B00A088000A8DF80D0020798DF80E0089
:104C300005988DF80F00012D2CD18DF8007020788B
:104C40008DF80100BDF80000DB1C0627ADF8080058
:104C50004FF6FF7100224AF2010C00BF13F8010B5E
:104C6000414000205FEAC17E02D08CEA510100E0A1
:104C70004908401C80B20828F4D3521C92B2BA42B0
:104C8000ECD3218188B2ADF8110030680B2202A963
:104C9000436B98470BB0E8B2F0BD0000280100203C
:104CA000000000000500000000000000044620464F
:104CB00003F01CF8FBE7000010B50C2001F00AFF20
:104CC000104CA060C8B1142001F004FFA168086076
:104CD00010B103F0ABF901E003F0F2F9142001F098
:104CE000F9FEA168486010B103F0A0F901E003F0FB
:104CF000E7F9A1680020087210BDBDE8104003F07C
:104D0000DFB900000000002010B5502080F31188AA
:104D1000BFF34F8FBFF36F8F03F06CFE18B10449E0
:104D20004FF080500860002080F3118810BD000013
:104D300004ED00E030B593B028216846FBF771FC24
:104D400014210AA8FBF76DFC002501200F95109592
:104D50001195010412958DE8230004904FF4E010A2
:104D6000CDE90810022407946846FEF7E9FA08B175
:104D700072B6FEE70AA90F2081E831004FF4806087
:104D8000CDE90D0502210AA8FEF7CEF908B172B6E9
:104D9000FEE74FF4004011900F940FA8FEF74EF974
:104DA000002801D072B6FEE713B030BD7047000096
:104DB0000148FEF7A7BE00003C0D00200148FEF7A9
:104DC000A1BE0000E40B00200148FEF79BBE0000DE
:104DD0002C0C0020F0B50268164B174C174D4FF005
:104DE0008047984205D0B84203D0A04201D0A842E3
:104DF00003D122F070064A683243984205D0B84287
:104E000003D0A04201D0A84203D122F44074CA6862
:104E100022434C6922F08002224302608A68C26207
:104E20000A688262984201D10969016301214161E6
:104E3000F0BD0000002C01400004004000080040CC
:104E400010B501F01F030121046A99408C430462EC
:104E5000016A9A401143016210BD10B5846842EAAC
:104E6000032224F47F440A432243826010BD8268F7
:104E700022F070020A4342F007018160704700008F
:104E800030B5026A22F001020262026A4368846954
:104E900024F073050C682C4322F002058A682A432B
:104EA0000A4DA8420BD122F00805CA6823F44073CA
:104EB0002A434D6922F004021D438B692B43436052
:104EC000846149684163026230BD0000002C0140EA
:104ED00030B5026A22F010020262026A43688469F5
:104EE0000D6824F4E64444EA05248D6822F020028B
:104EF00042EA05120B4DA8420ED1CD6822F0800285
:104F000042EA05124D6923F4406343EA85038D6943
:104F100022F0400243EA850343608461496881636B
:104F2000026230BD002C014030B5026A22F480726A
:104F30000262036A4268C46923F4007324F07305B3
:104F40000C682C438D6843EA05230C4DA8420ED112
:104F5000CD6823F4006343EA05234D6922F44052EF
:104F600042EA05128D6923F4806342EA0512426029
:104F7000C4614968C163036230BD0000002C014078
:104F800030B5026A22F480520262046A4268C36940
:104F90000D6823F4E64343EA05238D6824F40054A6
:104FA00044EA0534064DA84204D14D6922F48042FA
:104FB00042EA85124260C36149680164046230BDFF
:104FC000002C014010B5036A046A24F00104046255
:104FD000846924F0F00444EA021423F00A020A432C
:104FE0008461026210BD10B5036A23F010030362EE
:104FF0008369046A23F4704343EA023224F0A00375
:1050000043EA01118261016210BDFFF701BD10B5D5
:10501000406A0021C185C184FFF765F810BD70B5F5
:10502000446A2068406994F83910C0F3C010002524
:10503000212904D118B1E584204600F062F82068E7
:10504000406994F83A10C0F38010222904D118B1B5
:10505000E585204600F047F8E06B40F01000E06383
:105060002046FFF740F870BD10B50146406A096858
:105070000968890613D40021C1850168CA6822F431
:105080008072CA6001684A6922F001024A610168BF
:105090004A6922F040024A61202180F83A10FFF765
:1050A000CBF910BD10B5406AFFF7C7F910BD10B5B8
:1050B0000146406A0968096889060CD40021C18448
:1050C00001684A6922F080024A610068C16841F0C3
:1050D0004001C16010BDFFF7F1F910BD10B5406A85
:1050E000FFF7EDF910BD0168CA6822F49072CA603A
:1050F00001684A6922F001024A61202180F83A10D1
:1051000070470168CA6822F0C002CA60202180F896
:105110003910704710B590F83A10222901D00220BA
:1051200010BD82684FF480539A4201D1016921B1C8
:10513000816A9A421BD04AB10AE00268816A5268C9
:10514000C2F308020A80816A891C08E0026972B110
:105150000268526802F07F020A70816A491C81620B
:10516000C18D491E0904090CC18503D016E00268EF
:105170005268F1E70168CA6822F02002CA6001683B
:10518000CA6822F48072CA6001684A6922F001028A
:105190004A61202180F83A10FFF74EF9002010BD37
:1051A00070B5044600680169E26821F4405111437A
:1051B00001612169A0680843616908432168CA68E0
:1051C00041F20C639A430243CA6020684169A269B4
:1051D00021F44071114341611E492068884202D187
:1051E000FEF768F801E0FEF755F800EBC00101EBAF
:1051F0000012606864218000B2FBF0F3B3FBF1F3AE
:105200006FF018067343B2FBF0F5B2FBF0F605EB56
:105210008305322303EB0515B5FBF1F5B6FBF1F67B
:1052200005F0F00505EB0615B2FBF0F6B2FBF0F069
:10523000B0FBF1F06FF01802504306EB800003EB77
:105240000010B0FBF1F0216800F00F0028448860E6
:1052500070BD00000038014038B51348006801688F
:10526000C943C9061BD401684068104C00902068EF
:1052700080B10D48FEF70BFF0D4800684068C0F193
:10528000FD0120684269C2F800114169FD2206480B
:10529000FFF786F80748006808B100F055FFBDE841
:1052A00038400148FEF720BF740C00202801002080
:1052B000B40C002014010020FEE7000005498166BF
:1052C000054941660549C1660549016780220549CE
:1052D00002F064B809530008E9520008857F00080D
:1052E0009D7F0008180E002010B50C460A460146A6
:1052F0004FF6FF730348FEF73DFA08B1002010BDDA
:10530000204610BDF403002010B50C460A460146A5
:105310004FF6FF730348FEF76FFA00B100242046F2
:1053200010BD0000F403002070B515460C4606467B
:10533000FDF7B6FD02E0012000F0CEFED4F800013A
:105340000028F8D0D4F800110020605429462046E7
:10535000FBF73EF808B1062507E009A12046FBF758
:1053600037F808B1042500E00525224605A130469E
:1053700002F050FA204600F087F8284670BD000081
:10538000455252003E5B4D43553C2D4C3130315D12
:105390003A25730D0A000000490050EAC12018BFE9
:1053A00004204A0D18BF40F0010040F2FF72B2EB3A
:1053B000515F08BF40F00200012808BF0520704778
:1053C0000907090E002804DB00F1E02080F8001432
:1053D000704700F00F0000F1E02080F8141D7047C6
:1053E00030380A2801D20120704700207047EFF3BF
:1053F0000580002800D0012070470000FDF75EFD09
:10540000FFF798FCFFF776F9FFF7FAF8FFF7B0F827
:10541000FFF7E8F9FFF724FAFFF7DAFAFFF770FA77
:10542000FFF7A2FAFFF700FA0E48FFF747FF0E4812
:10543000FFF7B4FB0C48FD22006841690B48FEF7FA
:10544000AFFFFFF739FC0C210948FEF7D3FC4022DF
:1054500008490948FDF7F6F9FFF7F8F800F043FEB0
:10546000FEE70000A40D002028010020740C00209D
:105470009C0B0020D0090020D00A0020014600200B
:10548000842900D0C81C70470021C0F80011FD21FC
:10549000FBF7C7B870B5094DFF231A4605F58076AE
:1054A00006E000BF10F8014B54402A5D5A40335DBE
:1054B000491EF7D242EA032070BD00008097000821
:1054C0002DE9F04104460E4615461F46582001F0CE
:1054D00001FB21680246086044A1494802F09AF99C
:1054E0002068006800287FD0C761216845480968A6
:1054F00008622168444809684862206800680670AC
:10550000284603F03EFE0D46064632462B46002056
:105510003E4903F081FC03F0D7FD216832462B465B
:105520000968C86000203A4903F076FC03F0CCFD1E
:10553000216809688860216800200968087421686A
:10554000344809688862216833480968C86221685C
:10555000324809680863216831480968486321684E
:1055600030480968886321682F480968C863216842
:105570002E480968086421682D4809684864216834
:105580002C480968886421682B480968C864216828
:105590002A4809680865216829480968486520681B
:1055A0000068183000F088F840B1206800681430B6
:1055B00000F054F810B10120BDE8F08120680068C7
:1055C000143000F04BF8054620680068183000F0F1
:1055D00073F802462B461BA1094802F01BF920680C
:1055E00000E001E002F06CFD0020E5E768616E6418
:1055F0006C6572203D20307825700D0A0000000097
:10560000A40D0020BD5800083F590008389C6C418B
:1056100076B0804163630008856300087363000807
:10562000355D000841590008D95A0008895B000817
:10563000355C0008E15C00080D5D0008F1590008C8
:10564000695A000843706F6F6C203D2025642C2040
:1056500043726563203D2025640D0A0010B50446A1
:105660004FF4827001F036FA20601CB1FFF70CFF96
:10567000012010BD204602F023FD002010BD2DE9C1
:10568000F041002604460F460E60D4E981013546FC
:1056900088420DD20C2001F01DFA48B1056045602A
:1056A00085603860D4F80402401C0126C4F8040266
:1056B0003046BDE8F08100002DE9F84F8346002513
:1056C0004FF41B7001F006FA040075D03D48C4F891
:1056D0000C023D48C4F814023C48C4F81C023C4883
:1056E000C4F824023B48C4F810023B48C4F818022E
:1056F0003A48C4F820023A48C4F828023948C4F8A5
:105700002C023948C4F830023848C4F8340238480A
:10571000C4F838023748C4F83C023748C4F840029D
:105720003648C4F844023648C4F848023548C4F83C
:105730004C023548C4F850023448C4F85402344886
:10574000C4F858023348C4F85C023348C4F8600215
:105750003248C4F864023248C4F868020020C4F831
:1057600004024FF480702146C4F808020846FFF78F
:1057700086FF050020D0DFF8ACA0D4F80080002719
:10578000002604EBC71969462046FFF778FF05009D
:1057900012D05AF8270081190098016009EB8601A0
:1057A000761C48600098C8F808008046202EEAD38E
:1057B0007F1C042FE4D301252846CBF80040BDE828
:1057C000F88F0000515D0008915D0008B35E00088D
:1057D000CF5E0008175F0008795F00087960000855
:1057E000AD600008BB5D0008D55D0008A55F00083E
:1057F000B15F0008335E0008515E000809600008D0
:105800001D600008915E0008A15E00085760000856
:1058100067600008115E0008215E0008E75F00086D
:10582000F75F000818010020F0B504460020154E6F
:10583000034600BF56F823508D420BD805F12007D0
:105840008F4207D904EBC3104D1B00EB8500406865
:10585000106001205B1C042BECD3002807D12368C7
:105860000BE01C688C4203D14FF001001360F0BDC7
:1058700003D94FF000011160F0BD9B68002BF0D1FF
:10588000F0BD00001801002030B502680B68906878
:1058900001E00246806838B104681D68AC42F8D364
:1058A000AC4207D1002030BD9360096800208860B9
:1058B000012030BD986008689060F9E770B54569CF
:1058C0000446D5F80011032902D20221626A20E0C1
:1058D0002846891EFFF7DEFD28782178884202D00D
:1058E0000421626A14E0687805281DD008DC0128CC
:1058F00012D0022812D0032812D0042806D111E0B9
:10590000062813D00F2813D0102813D0626A05215F
:105910002046BDE870401047A16B0CE0E16B0AE047
:10592000216C08E0616C06E0A16C04E0E16C02E02F
:10593000216D00E0616D2046BDE87040084770476A
:105940002DE9F0478046D8E90574788890FA90F9F7
:10595000B88845BAAE00304601F0BCF88246314600
:10596000FAF75FFED4F8306253462A46494620468D
:10597000B04768074FEAD50000D0401CC4B2601D94
:1059800001F0A8F80646611DFAF729FE3878307054
:1059900078787070B470002112E0002072180AE06C
:1059A0001AF82330D77803F0010383401F43401CCB
:1059B000D770082803D200EBC103AB42F0D3491CD7
:1059C000A142EAD3E11C3046FFF764FD3119C870EB
:1059D000000A0871D8F834304046621D31469847B5
:1059E0005046FAF7B3FC3046BDE8F047FAF7AEBCD4
:1059F0002DE9F04706460024D6E90550814668881F
:105A000090FA90F8A88847BA0FE000BF05EBD400E1
:105A100004F00701C079D9F83432C84000F001021F
:105A200008EB040148469847641CBC42EED30820AA
:105A300001F050F804460020206060602868206073
:105A4000A888A08006212046FFF724FDA071000A47
:105A5000E071736B08222146304698472046BDE826
:105A6000F047FAF773BC00002DE9F0470646002422
:105A7000D6E905508146688890FA90F8A88847BA18
:105A80000CE000BF05EB4400D9F86432B0F8070021
:105A900008EB040142BA48469847641CBC42F1D363
:105AA000082001F017F80446002020606060286894
:105AB0002060A888A08006212046FFF7EBFCA0719B
:105AC000000AE071736B0822214630469847204651
:105AD000BDE8F047FAF73ABC2DE9F0478046D8E92F
